:020000040808EA
:200000003DB8F396000000000002000008CC09000000000001000000000000000000000082
:20002000FFFFFFFFFFFFFFFFFFFFFFFFFFFFFFFFFFFFFFFFFFFFFFFFFFFFFFFFFFFFFFFFE0
:20004000FFFFFFFFFFFFFFFFFFFFFFFFFFFFFFFFFFFFFFFFFFFFFFFFFFFFFFFFFFFFFFFFC0
:20006000FFFFFFFFFFFFFFFFFFFFFFFFFFFFFFFFFFFFFFFFFFFFFFFFFFFFFFFFFFFFFFFFA0
:20008000FFFFFFFFFFFFFFFFFFFFFFFFFFFFFFFFFFFFFFFFFFFFFFFFFFFFFFFFFFFFFFFF80
:2000A000FFFFFFFFFFFFFFFFFFFFFFFFFFFFFFFFFFFFFFFFFFFFFFFFFFFFFFFFFFFFFFFF60
:2000C000FFFFFFFFFFFFFFFFFFFFFFFFFFFFFFFFFFFFFFFFFFFFFFFFFFFFFFFFFFFFFFFF40
:2000E000FFFFFFFFFFFFFFFFFFFFFFFFFFFFFFFFFFFFFFFFFFFFFFFFFFFFFFFFFFFFFFFF20
:20010000FFFFFFFFFFFFFFFFFFFFFFFFFFFFFFFFFFFFFFFFFFFFFFFFFFFFFFFFFFFFFFFFFF
:20012000FFFFFFFFFFFFFFFFFFFFFFFFFFFFFFFFFFFFFFFFFFFFFFFFFFFFFFFFFFFFFFFFDF
:20014000FFFFFFFFFFFFFFFFFFFFFFFFFFFFFFFFFFFFFFFFFFFFFFFFFFFFFFFFFFFFFFFFBF
:20016000FFFFFFFFFFFFFFFFFFFFFFFFFFFFFFFFFFFFFFFFFFFFFFFFFFFFFFFFFFFFFFFF9F
:20018000FFFFFFFFFFFFFFFFFFFFFFFFFFFFFFFFFFFFFFFFFFFFFFFFFFFFFFFFFFFFFFFF7F
:2001A000FFFFFFFFFFFFFFFFFFFFFFFFFFFFFFFFFFFFFFFFFFFFFFFFFFFFFFFFFFFFFFFF5F
:2001C000FFFFFFFFFFFFFFFFFFFFFFFFFFFFFFFFFFFFFFFFFFFFFFFFFFFFFFFFFFFFFFFF3F
:2001E000FFFFFFFFFFFFFFFFFFFFFFFFFFFFFFFFFFFFFFFFFFFFFFFFFFFFFFFFFFFFFFFF1F
:2002000055AA55AA58433830363400000000000094010000EA6527D958494824AE17CCAE43
:20022000F4C1288A44656320313920323032350031363A32373A313800000000FFFFFF5AD4
:20024000FFFFFFFFFFFFFFFFFFFFFFFFFFFFFFFFFFFFFFFFFFFFFFFFFFFFFFFFFFFFFFFFBE
:20026000FFFFFFFFFFFFFFFFFFFFFFFFFFFFFFFFFFFFFFFFFFFFFFFFFFFFFFFFFFFFFFFF9E
:20028000FFFFFFFFFFFFFFFFFFFFFFFFFFFFFFFFFFFFFFFFFFFFFFFFFFFFFFFFFFFFFFFF7E
:2002A000FFFFFFFFFFFFFFFFFFFFFFFFFFFFFFFFFFFFFFFFFFFFFFFFFFFFFFFFFFFFFFFF5E
:2002C000FFFFFFFFFFFFFFFFFFFFFFFFFFFFFFFFFFFFFFFFFFFFFFFFFFFFFFFFFFFFFFFF3E
:2002E000FFFFFFFFFFFFFFFFFFFFFFFFFFFFFFFFFFFFFFFFFFFFFFFFFFFFFFFFFFFFFFFF1E
:20030000FFFFFFFFFFFFFFFFFFFFFFFFFFFFFFFFFFFFFFFFFFFFFFFFFFFFFFFFFFFFFFFFFD
:20032000FFFFFFFFFFFFFFFFFFFFFFFFFFFFFFFFFFFFFFFFFFFFFFFFFFFFFFFFFFFFFFFFDD
:20034000FFFFFFFFFFFFFFFFFFFFFFFFFFFFFFFFFFFFFFFFFFFFFFFFFFFFFFFFFFFFFFFFBD
:20036000FFFFFFFFFFFFFFFFFFFFFFFFFFFFFFFFFFFFFFFFFFFFFFFFFFFFFFFFFFFFFFFF9D
:20038000FFFFFFFFFFFFFFFFFFFFFFFFFFFFFFFFFFFFFFFFFFFFFFFFFFFFFFFFFFFFFFFF7D
:2003A000FFFFFFFFFFFFFFFFFFFFFFFFFFFFFFFFFFFFFFFFFFFFFFFFFFFFFFFFFFFFFFFF5D
:2003C000FFFFFFFFFFFFFFFFFFFFFFFFFFFFFFFFFFFFFFFFFFFFFFFFFFFFFFFFFFFFFFFF3D
:2003E000FFFFFFFFFFFFFFFFFFFFFFFFFFFFFFFFFFFFFFFFFFFFFFFFFFFFFFFFFFFFFFFF1D
:2004000000F00E203DAD10088DBD0E0855BE0E08C1BE0E08C7BE0E08CDBE0E080000000062
:20042000000000000000000000000000E11D0F08D3BE0E0800000000711D0F08111B0F0818
:20044000B5AD1008B5AD1008B5AD1008B5AD1008B5AD1008B5AD1008B5AD1008B5AD1008CC
:20046000B5AD1008B5AD1008B5AD1008B5AD1008B5AD1008B5AD1008B5AD1008B5AD1008AC
:20048000B5AD1008B5AD1008B5AD1008B5AD1008B5AD1008B5AD1008B5AD1008B5AD10088C
:2004A000B5AD1008B5AD1008B5AD1008B5AD1008E5BE0E08F3BE0E08FFBE0E08B5AD100887
:2004C000B5AD1008B5AD1008B5AD1008B5AD1008B5AD1008B5AD100823BF0E083BBF0E0838
:2004E000B5AD1008B5AD1008B5AD1008B5AD1008B5AD1008B5AD1008B5AD1008B5AD10082C
:20050000B5AD1008B5AD1008A5BF0E08B5AD1008B5AD1008B5AD1008B5AD10080BBF0E08A5
:2005200017BF0E08B5AD1008B5AD1008B5AD1008B5AD100869BF0E08B5AD1008B5AD1008B5
:20054000B5AD1008B5AD1008B5AD100855BF0E08B5AD1008B5AD1008B5AD10082FBF0E0891
:20056000B5AD1008B5AD1008B5AD1008B5AD1008B5AD1008B5AD1008B5AD10080000000025
:20058000B5AD1008EFBD0E0847BF0E08B5AD1008B5AD1008B5AD1008B5AD1008B5AD1008A1
:2005A000B5AD1008B5AD1008B5AD1008B5AD1008B5AD1008B5AD1008B5AD1008B5AD10086B
:2005C000B5AD1008B5AD1008B5AD1008B5AD1008B5AD1008B5AD1008B5AD1008B5AD10084B
:2005E00080B483B000AF0346FB71FB79054ADB0113447C331B7818460C37BD465DF8047B80
:20060000704700BF9809002080B483B000AF03460A46FB711346BB71FB79064ADB0113440C
:200620007C33BA791A7000BF0C37BD465DF8047B704700BF9809002080B584B000AF0346DD
:20064000FB714FF00003FB60FB79184600F042F803467B817B89022B02D07B89042B2FD11A
:20066000FB79072B09D8FB79184652F063FA07EE900AF8EEE77AC7ED037AD7ED037A9FEDAE
:20068000127AF4EEC77AF1EE10FA07DDFB790F4ADB0113447C3300221A7010E0D7ED037A52
:2006A0009FED0B7AF4EEC77AF1EE10FA00D406E0FB79064ADB0113447C3301221A7000BF51
:2006C0001037BD4680BD00BF00007A44980900200000FA4380B483B000AF0346FB71FB79D9
:2006E000104ADB0113441033B3F90030042B06DDFB790C4ADB011344103303221A80FB79C9
:20070000072B01D9002307E0FB79064ADB0113441033B3F900309BB218460C37BD465DF867
:20072000047B70479809002080B582B000AF0346FB71FB79124ADB0113441033B3F90030D5
:20074000042B18DC022B10DA002B02D0012B06D011E0FB790021184652F0E2FC0BE0FB79FD
:200760000121184652F0DCFC05E0FB790221184652F0D6FC00BF00BF0837BD4680BD00BF35
:200780009809002080B483B000AF0023FB719BE0FB79534ADB01134430334FF000021A6016
:2007A000FB794F4ADB0113442C334E4A1A60FB794B4ADB01134428334FF07E521A60FB79F4
:2007C000474ADB0113440E3305221A80FB79444ADB011344123302221A80FB79404ADB0141
:2007E000134448334FF000021A60FB793C4ADB01134444333B4A1A60FB79394ADB0113449F
:200800003C334FF000021A60FB79354ADB011344103303221A80FB79314ADB0113445033E1
:2008200003221A80FB792E4ADB01134438332E4A1A60FB792A4ADB01134434332B4A1A600C
:20084000FB79274ADB011344143301221A80FB79234ADB01134440334FF000021A60FB79C6
:200860001F4ADB0113444C334FF000021A60FB791B4ADB011344083300221A70FB79184AD9
:20088000DB011344073300221A70FB79144ADB011344093300221A70FB79114ADB01134450
:2008A000053300221A70FB790D4ADB011344063300221A70FB790A4ADB011344043300221D
:2008C0001A70FB790133FB71FB79072B7FF660AF00BF00BF0C37BD465DF8047B704700BF42
:2008E000980900200000C84200005C42000034C280B582B000AF4FF077FF51F001FF6B4BD7
:2009000000221A8048F0FAFD0346002B01D0FFF739FF0023FB71A0E0FB79654ADB01134414
:2009200064334FF07E521A60FB79614ADB0113446833604A1A60FB795D4ADB0113446C3399
:200940005D4A1A60FB795A4ADB01134470335B4A1A60FB79564ADB0113447433584A1A605F
:20096000FB79534ADB0113447C3300221A70FB794F4ADB0113440A3300221A70FB794C4AA5
:20098000DB0113440B3300221A70FB79484ADB011344033300221A70FB79454ADB011344E9
:2009A000013300221A70FB79414ADB011344023300221A70FB793E4ADB0113447D33002243
:2009C0001A70FB793A4ADB0113440C3300221A80FB79374ADB0113441C333A4A1A60FB797E
:2009E000334ADB0113441833374A1A60FB79304ADB011344783300221A70FB792C4ADB01C3
:200A000013447A3300221A80FB79294ADB01134403F158014FF000024FF00003C1E900235F
:200A2000FB79234ADB011344603300221A70FB791F4ADB0113441033B3F90020FB7991B28D
:200A40001B4ADB01134450330A461A80FB791846FFF76AFEFB790133FB71FB79072B7FF632
:200A60005BAF0121194854F0E7FB0121184854F0E3FB184B00221A70174B00221A70174BA0
:200A800000221A70164B00221A70164B00221A70154A164B104619464FF496631A468BF004
:200AA000FCFC00BF0837BD4680BD00BF9009002098090020000020410000C84200007A449E
:200AC00000401C4617761772177617F288090020800900208E09002092090020860900204D
:200AE000870900208F090020E8810220F477110880B483B000AF0346FB71FB79072B02D933
:200B00004FF0000305E0FB79054ADB01134424331B6818460C37BD465DF8047B704700BFF0
:200B200098090020B0B586B000AF03463960FB710023FB74974B1B88002B40D0954B1B8887
:200B4000102B02D9934B10221A80FB79924ADB0113447D331B787B747B7C904AD35C7B7431
:200B60007B7C9AB28B4B1B889A4200F091800023BB7420E0BB7C894AD35C1A46854B1B887E
:200B80009A4215D1FB79844ADB0113447D33BA7C1A70804B1B88DAB2FB791146184651F04A
:200BA000EDFFFB797C4ADB01134424331B68EDE0BB7C0133BB74BB7C022BDBD968E03B6898
:200BC00040F6D27293422DDDFB79734ADB0113447D331B78002B5BD0FB796F49DA010A446A
:200BE0007D321278013AD1B26B4ADB0113447D330A461A70FB79684ADB0113447D331B78F0
:200C00007B747B7C654AD35C7B747A7CFB791146184651F0B3FFFB795F4ADB011344243368
:200C20001B68B3E03B6840F2B532934230DC3B68002B2DDBFB79584ADB0113447D331B789F
:200C4000012B25D8FB795449DA010A447D3212780132D1B2504ADB0113447D330A461A70EB
:200C6000FB794D4ADB0113447D331B787B747B7C4A4AD35C7B747A7CFB791146184651F0FB
:200C80007DFFFB79444ADB01134424331B687DE0FB79184651F086FF03467B740023BB744A
:200CA0000AE0BB7C3D4AD35C7A7C9A4201D1BB7CFB74BB7C0133BB74BB7C022BF1D9384BC8
:200CC000FB60FA79374913465B0013449B000B4404331B881A463B689B1A3B60FA7CFB79BA
:200CE0003149D2001344DB000B4493ED007A3B6807EE903AF8EEE77A27EE277AFA7CFB79E4
:200D00002949D2001344DB000B440433D3ED007A77EE277AC7ED057AD7ED057A9FED237AF8
:200D2000F4EEC77AF1EE10FA01DD214B7B6197ED057AD7ED037A67EE277AC7ED027A7B7C20
:200D400018466AF001FB4FF000021A4B6AF066FB02460B4614461D4678696AF007FB0246A3
:200D60000B46204629466AF0A1F902460B46104619466AF04BFE03467B61D7ED026A97ED8F
:200D8000057AC6EE877AC7ED027ABB6818461837BD46B0BD9009002098090020882711086D
:200DA00000E0F646F87F02205880022000E07C4500E07C450000B04080B582B000AF0346F3
:200DC000FB71FB79072B02D94FF000030AE0FB79184651F0C1FE0246FB7911461846FFF7C1
:200DE000A1FE034618460837BD4680BDB0B586B000AF03463960FB71FB79184651F0D2FEB3
:200E00000346BB740023FB740BE0FB7CAA4AD35CBA7C9A4202D1FB7CBB7405E0FB7C013328
:200E2000FB74FB7C012BF0D9FB7C022B02D1FB7C013BBB74FB79A14ADB0113441033B3F9FD
:200E40000030002B21D1F979BB7C9D481A4652001A4453001A460B465B000B449B00134407
:200E600003441B883B82F979BB7C95481A4652001A4453001A460B465B000B449B00134495
:200E8000034402331B88FB8119E0FA79BB7C8D495200134431F833303B82FA79BB7C8949D0
:200EA00052001344DB000B445B88FB81FA79BB7C844952001344DB000B44DB88BB81824B4A
:200EC0001B88002B40D0804B1B88102B02D97E4B10221A80FB79794ADB0113447D331B786E
:200EE000FB72FB7A744AD35CFB72FB7A9AB2764B1B889A4200F0B7800023FB7420E0FB7C85
:200F00006D4AD35C1A46704B1B889A4215D1FB796A4ADB0113447D33FA7C1A706A4B1B8808
:200F2000DAB2FB791146184651F028FEFB79634ADB01134424331B686DE3FB7C0133FB74FD
:200F4000FB7C012BDBD98EE038686AF0FDF904460D46FB8918466AF0F7F953A3D3E900233E
:200F60006AF05CFA02460B46204629466AF0E6FC0346002B04D13B6840F6FF7293422DD1B1
:200F8000FB794E4ADB0113447D331B78002B6AD0FB794A49DA010A447D321278013AD1B243
:200FA000464ADB0113447D330A461A70FB79434ADB0113447D331B78FB72FB7A3E4AD35CD4
:200FC000FB72FA7AFB791146184651F0D7FDFB793A4ADB01134424331B681CE338686AF0F4
:200FE000B3F904460D463B8A18466AF0ADF930A3D3E900236AF012FA02460B4620462946FF
:201000006AF07EFC0346002B2DD0FB792B4ADB0113447D331B78002B25D1FB792749DA014C
:201020000A447D3212780132D1B2244ADB0113447D330A461A70FB79204ADB0113447D3387
:201040001B78FB72FB7A1C4AD35CFB72FA7AFB791146184651F092FDFB79184ADB011344A3
:2010600024331B68D7E2FB79144ADB0113441033B3F90030002B29D1F979BB7C10481A4633
:2010800052001A4453001A460B465B000B449B001344034404331B881A463B689B1A3B608C
:2010A00020E000BFAFF300809A9999999999F13FCDCCCCCCCCCCEC3F8C2711089809002007
:2010C000F87F0220787F022090090020FA79BB7CBD4952001344DB000B449B881A463B68FC
:2010E0009B1A3B603B6840F6F672934207DDFB79B64ADB0113440C3301221A8012E0FB898D
:201100003A689A4207DDFB79B04ADB0113440C3303221A8006E0FB79AC4ADB0113440C330C
:2011200000221A803B8A3A689A4280F2C3803B685B4207EE903AF8EEE77AC7ED057A3B8ABD
:20114000002B0BD14FF000037B61FB799F4ADB01134420334FF000021A601BE03B8A07EE17
:20116000903AB8EEE77AD7ED056AC6EE877AC7ED057A3B68002B04D0D7ED057AF1EE677ADE
:2011800001E0D7ED057AFB79904ADB0113442033C3ED007AFB798D4ADB0113441033B3F9C0
:2011A0000030002B1CD1FA79FB798849D2010A44203212688549DB010B4420331A6078699B
:2011C0006AF0D4F87AA3D3E900236AF027F902460B46104619466AF019FC03467B6121E090
:2011E000FB797A4ADB0113442033D3ED007AFB79B1EE007A67EE877A744ADB0113442033D0
:20120000C3ED007A78696AF0B1F86BA3D3E900236AF004F902460B46104619466AF0F6FBE3
:2012200003467B61FB79694ADB01134407331B78012B1BD1D7ED057AF1EE677A17EE903A78
:2012400018466AF093F802460B461046194689F0B3FD02460B46104619466AF0D7FB034611
:2012600007EE903AF1EE677AC7ED057AFB79574ADB011344443393ED007AFB79534ADB0116
:2012800013444833D3ED007A77EE677A97ED057A67EE277AC7ED057AFB794C4ADB01134493
:2012A000483393ED007AD7ED057A77EE677AC7ED057AAFE13B8A3A68D31A07EE903AF8EE74
:2012C000E77AC7ED057AFA893B8AD31A07EE903AB8EEE77AD7ED056AC6EE877AC7ED057A64
:2012E000FB793A4ADB01134420337A691A60FB79364ADB0113441033B3F90030002B67D16A
:20130000FB79324ADB0113447D331B78002B2FD1FB792E4ADB0113442033D3ED007AB2EEF0
:20132000027A67EE877AFB79B7EE007A77EE877A264ADB0113442033C3ED007A78696AF087
:2013400015F81FA3D3E900236AF068F802460B461046194616A3D3E9002369F0A9FE0246F7
:201360000B46104619466AF051FB03467B6115E1FA79FB791549D2010A4420321268134918
:20138000DB010B4420331A60786969F0EFFF08A3D3E900236AF042F802460B4610461946C1
:2013A0006AF034FB03467B61F8E000BFAFF300809A9999999999B93F9A9999999999C93F98
:2013C000CDCCCCCCCCCCEC3F787F022098090020FB79994ADB0113447D331B78002B40F017
:2013E0009E80BB893A689A424CDDBB893A68D31A07EE903AF8EEE77AC7ED057AFA89BB8911
:20140000D31A07EE903AB8EEE77AD7ED056AC6EE877AC7ED057AFB79874ADB011344203333
:201420007A691A60FB79844ADB0113442033D3ED007AB1EE007A67EE877AFB79B3EE007A4F
:2014400077EE877A7C4ADB0113442033C3ED007A786969F08BFF72A3D3E9002369F0DEFFC2
:2014600002460B46104619466FA3D3E9002369F01FFE02460B46104619466AF0C7FA034605
:201480007B618BE03B8A3A68D31A07EE903AF8EEE77AC7ED057ABA893B8AD31A07EE903AC4
:2014A000B8EEE77AD7ED056AC6EE877AC7ED057AFB79614ADB01134420337A691A60FB7994
:2014C0005D4ADB0113442033D3ED007AB2EE087A67EE877AFB79B1EE007A77EE877A564A9A
:2014E000DB0113442033C3ED007A786969F03EFF4FA3D3E9002369F091FF02460B4610461C
:20150000194647A3D3E9002369F0D2FD02460B46104619466AF07AFA03467B613EE03B8A57
:201520003A68D31A07EE903AF8EEE77AC7ED057AFA893B8AD31A07EE903AB8EEE77AD7ED24
:20154000056AC6EE877AC7ED057AFB793A4ADB01134420337A691A60FB79374ADB01134431
:201560002033D3ED007AFB79B1EE007A67EE877A314ADB0113442033C3ED007A786969F096
:20158000F5FE27A3D3E9002369F048FF02460B46104619466AF03AFA03467B61FB79264A2A
:2015A000DB01134407331B78012B10D1786969F0DDFE02460B461046194689F0FDFB024602
:2015C0000B46104619466AF021FA03467B61FB79194ADB011344443393ED007AFB79164A1C
:2015E000DB0113444833D3ED007A77EE677A97ED057A67EE277AC7ED057AFB790E4ADB01E9
:2016000013444833D3ED007A97ED057A77EE277AC7ED057A7B6918461837BD46B0BD00BFC2
:201620009A9999999999C93F9A9999999999E93F333333333333E33F9809002080B584B0CE
:2016400000AF0346FB71FB79184651F085FA0246FB7911461846FFF7C9FBF860FB79FA792A
:201660002949D2010A441232B2F900201146264A5B010B4418339B001344043393ED007AE8
:20168000D7ED037A67EE277AB6EE007A77EE877AC7ED037AD7ED037AFDEEE77A17EE903A02
:2016A000BB60BB6807EE903AF8EEE76AFB79FA791549D2010A441232B2F900201146124ACE
:2016C0005B010B4418339B001344043393ED007AC6EE877AC7ED037AFB790B4ADB0113440F
:2016E0004033D3ED007A97ED037A77EE277AC7ED037AFB79044ADB0113442433FA681A60DD
:2017000000BF1037BD4680BD980900202DE9B0438AB000AF0346FB714FF000037B624FF0BD
:2017200000033B61FB79B84ADB0113441433B3F90030002B08DDFB79B34ADB011344143343
:20174000B3F90030102B06DDFB79AF4ADB011344143301221A80FB79072B1BD8FB79184680
:2017600051F0FAF90246FB7911461846FFF7DAF97862D7ED097AF5EEC07AF1EE10FA02D8FA
:201780004FF000037B62FB799F4ADB01134420337A6A1A60FB799C4ADB0113441033B3F96D
:2017A0000030032B40F076820023BB75FB79964ADB0113441433B3F90030DBB2013BFB736F
:2017C000924BFB61924BBB610023FB7544E0FA7BF97D904813461B019B1A5B000B44DB00AE
:2017E00003440433D3ED007A97ED077AB4EEE77AF1EE10FA0CD5FA7BF97D864813461B0131
:201800009B1A5B000B44DB00034404331B68FB61FA7BF97D7F4813461B019B1A5B000B44AB
:20182000DB0003440433D3ED007A97ED067AB4EEE77AF1EE10FA0CDDFA7BF97D754813463B
:201840001B019B1A5B000B44DB00034404331B68BB61FB7D0133FB75FB7D1D2BB7D9FB7935
:20186000072B59D8FB79184651F076F907EE900AF8EEE77AC7ED047AD7ED047A9FED667ACD
:20188000F4EEC77AF1EE10FA07DDFB795E4ADB0113440C3305221A803EE0604B9B880A33E0
:2018A00007EE903AF8EEE77A97ED047AB4EEE77AF1EE10FA07D8FB79534ADB0113440C33D2
:2018C00002221A8028E097ED097AD7ED077AB4EEE77AF1EE10FA07DDFB794B4ADB011344EA
:2018E0000C3303221A8017E097ED097AD7ED067AB4EEE77AF1EE10FA07D5FB79424ADB0104
:2019000013440C3304221A8006E0FB793E4ADB0113440C3300221A80FA7B3E4913461B01F0
:201920009B1A1B010B44043393ED007AFA7B394913461B019B1A1B010B440C33D3ED007A51
:20194000B4EEE77AF1EE10FA01DD0123BB750023FB7553E0FA7BF97D2E4813461B019B1A18
:201960005B000B44DB000344D3ED007AF5EE407AF1EE10FA11D1FA7BF97D264813461B012B
:201980009B1A5B000B44DB0003440433D3ED007AF5EE407AF1EE10FA2CD0BB7D002B14D08C
:2019A000FA7BF97D1B4813461B019B1A5B000B44DB0003440433D3ED007A97ED097AB4EEC9
:2019C000E77AF1EE10FA1DDA15E0FA7BF97D114813461B019B1A5B000B44DB000344043360
:2019E000D3ED007A97ED097AB4EEE77AF1EE10FA16D900E000BFFB7D0133FB75FB7D1D2B50
:201A0000A8D90EE000BF0CE098090020177617F217761772E881022000607F45F87F0220F7
:201A200000BFFB7D002B09D1FA7B954913461B019B1A1B010B441B683B6288E0FB7D1E2B39
:201A40000AD1FA7B8E4913461B019B1A1B010B44E8331B683B627AE0FA7BFB7D591E884801
:201A600013461B019B1A5B000B44DB000344043393ED007AD7ED097A77EE677AC7ED087A7C
:201A8000FA7BFB7D591E7E4813461B019B1A5B000B44DB000344043393ED007AFA7BF97D0A
:201AA000774813461B019B1A5B000B44DB0003440433D3ED007A37EE677AD7ED086AC6EE10
:201AC000877AC7ED087AFA7BFB7D591E6C4813461B019B1A5B000B44DB00034493ED007AC7
:201AE000FA7BF97D664813461B019B1A5B000B44DB000344D3ED007A77EE677A97ED087AD1
:201B000067EE277AC7ED087AFA7BFB7D591E5C4813461B019B1A5B000B44DB00034493ED1B
:201B2000007AD7ED087A77EE677AC7ED087A386A69F01CFC4EA3D3E9002369F0B9FA024632
:201B40000B461046194669F061FF03463B62D7ED087A9FED4C7A67EE877AC7ED087A3B6A17
:201B60007B6297ED097ADFED476AC7EE267AC7ED097AFB79444ADB0113445833D3E90045B7
:201B8000786A69F0F3FB02460B462046294669F08DFA02460B461046194669F037FF0346A8
:201BA0003B61D7ED047AF0EEE77AB1EE047AF4EEC77AF1EE10FA28DBFB793349DA010A44C3
:201BC000603212780132D1B22F4ADB01134460330A461A70FB792C4ADB01134460331B78D7
:201BE000022B12D9FC79786A69F0C0FB02460B462548E10101445831C1E90023FB79224AFF
:201C0000DB011344603300221A70FB791E4ADB0113445833D3E9000117A3D3E9002369F009
:201C2000FDFB02460B46104619464FF00002174B69F01EFD02460B4690469946D7ED097AB2
:201C40009FED137AC7EE876A16EE900A69F08EFB02460B46FC794046494669F029FA02465E
:201C60000B460948E10101445831C1E900231DE07B14AE47E17A743F0000000000C05F4057
:201C8000E88102200000C842980900200000604000000043FC79786A69F068FB02460B465F
:201CA0003448E10101445831C1E90023FB79314ADB0113445833D3E900231046194669F091
:201CC000A5FE03467B62FB792A4ADB0113444033D3ED007A97ED097A77EE277AC7ED097A2F
:201CE000FB79FA792349D2010A441232B2F900201146204A5B010B4418339B001344043381
:201D000093ED007AD7ED097A67EE277AB6EE007A77EE877AC7ED087AD7ED087AFDEEE77A40
:201D200017EE903ABB60BB6807EE903AF8EEE76AFB79FA790F49D2010A441232B2F9002031
:201D400011460C4A5B010B4418339B001344043393ED007AC6EE877AC7ED087AFB79054A0F
:201D6000DB01134424333A6A1A6000BF2837BD46BDE8B0839809002080B483B000AFAC4BF4
:201D80001B88B3F57A7F26D3A94B1B88A3F57A739AB2A74B1A8000237B6019E0A54A7B6849
:201DA000DB0113447A331B88002B0ED0A14A7B68DB0113447A331B88013B99B29D4A7B68F5
:201DC000DB0113447A330A461A807B6801337B607B68072BE2DD984B1B78072B00F2F18167
:201DE000954B1B78934ADB01134405331B78002B1FD1914B1B788F4ADB01134406331B7833
:201E0000002B16D18C4B1B788A4ADB011344013300221A70884B1B78864ADB01134478334B
:201E200000221A70844B1B780133DAB2824B1A70C8E1814B1B787F4ADB01134478331B783B
:201E400003F03003002B00F0A9807B4B1B78794ADB011344243393ED007A774B1B78754A64
:201E6000DB0113442C33D3ED006A734B1B78714ADB0113442833D3ED007A76EEE77AB4EE6B
:201E8000E77AF1EE10FA31D86B4B1B78694ADB011344243393ED007A674B1B78654ADB019F
:201EA00013443033D3ED006A634B1B78614ADB0113442833D3ED007A76EEA77AB4EEE77A02
:201EC000F1EE10FA12DB5C4B1B785A4ADB0113447A331B88002B40F00281574B1B78554A19
:201EE000DB011344783300221A70F8E0524B1B78504ADB0113440E33B3F900204E4B1B784A
:201F000091B24C4ADB0113447A330A461A804A4B1B78484ADB01134478331B78102B1ED1C9
:201F2000454B1B78434ADB011344243393ED007A414B1B783F4ADB0113443033D3ED007AF5
:201F4000B4EEE77AF1EE10FA40F1C9803A4B1B78384ADB011344783320221A70BFE0364BB7
:201F60001B78344ADB011344243393ED007A324B1B78304ADB0113442C33D3ED007AB4EED4
:201F8000E77AF1EE10FA40F3AA802B4B1B78294ADB011344783310221A70A0E0264B1B7800
:201FA000244ADB011344243393ED007A224B1B78204ADB0113442C33D3ED007AB4EEE77AF6
:201FC000F1EE10FA3ADD1C4B1B781A4ADB01134478331B78012B10D0174B1B78154ADB01F6
:201FE00013440E33B3F90020134B1B7891B2114ADB0113447A330A461A800F4B1B780D4AE0
:20200000DB011344783301221A700B4B1B78094ADB0113447A331B88002B60D1064B1B7836
:20202000044ADB011344783310221A7057E000BF88090020980900208E090020644B1B7857
:20204000644ADB011344243393ED007A604B1B78604ADB0113443033D3ED007AB4EEE77A93
:20206000F1EE10FA33D55A4B1B785A4ADB01134478331B78022B10D0554B1B78554ADB0167
:2020800013440E33B3F90020514B1B7891B2514ADB0113447A330A461A804D4B1B784D4A43
:2020A000DB011344783302221A70494B1B78494ADB0113447A331B88002B10D1444B1B7829
:2020C000444ADB011344783320221A7007E0404B1B78404ADB011344783300221A703C4B28
:2020E0001B783C4ADB01134478331B7803F03003002B4ED0364B1B78364ADB011344783375
:202100001B78102B22D1324B1B78324ADB011344023301221A702E4B1B782E4ADB011344A6
:2021200005331B78012B08D1294B1B78294ADB011344013301221A703CE0254B1B78254AB3
:20214000DB011344013300221A7033E0204B1B78204ADB011344023301221A701C4B1B78E2
:202160001C4ADB01134406331B78012B08D1184B1B78184ADB011344013301221A7019E090
:20218000134B1B78134ADB011344013300221A7010E00F4B1B780F4ADB01134404331B78AB
:2021A000002B07D10A4B1B780A4ADB011344013300221A70064B1B780133DAB2044B1A7050
:2021C00000E000BF0C37BD465DF8047B704700BF8E0900209809002080B582B000AF5A4B9D
:2021E0001B78072B27D8584B1B78584ADB01134450331B881946544B1B78544ADB01134488
:202200001033B3F90030994215D04F4B1B784F4ADB0113441033B3F900204B4B1B7891B26B
:202220004A4ADB01134450330A461A80464B1B781846FEF779FA464B1B88042B13D9444BA2
:202240001B88053B9AB2424B1A80424B1B78052B03D8404B00221A7005E03E4B1B78053B85
:20226000DAB23C4B1A703B4B1B78002B40F07F81354B1B78354ADB01134409331B78012B8D
:2022800010D1314B1B7819462F4B1B7818462F4ACB0113444C331A682C49C3010B44243308
:2022A0001A6064E0284B1B78284ADB0113441233B3F90030042B07DD234B1B78234ADB0137
:2022C0001344123304221A801F4B1B781846FEF701FA1D4B1B781846FEF7FCF90346BB8090
:2022E000194B1B78072B1ED8BB88042B1BD1164B1B78164ADB0113447D3300221A7001235A
:202300007B80114B1B78184650F04CFC03461A467B88934207D00C4B1B787A88D2B21146CE
:20232000184650F02BFCBB88012B02D0BB88002B12D1054B1B78072B19D8034B1B78184601
:20234000FFF77CF913E000BF92090020980900208009002087090020BB88022B02D0BB8806
:20236000032B04D1844B1B781846FFF7CFF9834B1B78142B7ED9804B1B78814ADB01134489
:2023800008331B78012B24D17B4B1B787C4ADB011344243393ED007A774B1B78784ADB01B8
:2023A00013443C33D3ED007AB4EEE77AF1EE10FA0FD5714B1B7819466F4B1B781846704A3A
:2023C000CB01134448331A686D49C3010B4424331A60694B1B786A4ADB011344243393ED3E
:2023E000007A654B1B78664ADB0113441C33D3ED007AB4EEE77AF1EE10FA0FD55E4B1B78A8
:2024000019465D4B1B7818465D4ACB01134424331A685B49C3010B441C331A60564B1B786D
:20242000574ADB011344243393ED007A524B1B78534ADB0113441833D3ED007AB4EEE77AEF
:20244000F1EE10FA0FDD4C4B1B7819464A4B1B7818464B4ACB01134424331A684849C301B2
:202460000B4418331A60444B1B781846FEF7E4F8FFF782FC404B1B780133DAB23E4B1A7092
:202480003D4B1B78072B72D93B4B00221A703B4B1B78632B05D8394B1B780133DAB2374B95
:2024A0001A70384B64221A70334B00221A70364B00221A700023FB7156E02F4B1B78304A5C
:2024C000DB0113440A331B78012B0FD12A4B1B782B4ADB0113441C332C4A1A60264B1B78FA
:2024E000274ADB0113440A3300221A70224B1B78234ADB0113440B331B78012B0FD11E4B69
:202500001B781F4ADB0113441833214A1A601A4B1B781B4ADB0113440B3300221A70164B81
:202520001B78174ADB01134404331B78012B18D1114B1B78124ADB01134403331B78012B22
:202540000FD10D4B1B780E4ADB011344013300221A70094B1B780A4ADB011344033300227F
:202560001A70FB790133FB71FB79072BA5D900BF0837BD4680BD00BF920900208609002032
:2025800098090020870900208E09002017761772177617F280B483B000AF0346FB71044A4E
:2025A000FB79137000BF0C37BD465DF8047B70478F09002080B400AF034B1B781846BD46B7
:2025C0005DF8047B704700BF8F09002080B483B000AF78600B46FB7000BF0C37BD465DF8F5
:2025E000047B704780B588B000AFF860B9607A60FB68FB61FB681833BB61BB697B61FB6951
:202600001B7D7969094ADB0113440846194650231A4689F042FFBB68D9B2BB697A68044880
:202620004AF09CFA00BF2037BD4680BD980900209027110880B58AB002AFF8607A601A4631
:202640000B46FB721346BB72FB68FB61FB681833BB61BB697B61FB691B7D7969104ADB0199
:2026600013440846194650231A4689F016FFB97AFA7ABB6900930B4679680A484AF04DFE8E
:20268000FB691B7D064ADB011A447B691046194650231A4689F001FF00BF2037BD4680BD79
:2026A000980900209027110880B483B000AF68237B607B6818460C37BD465DF8047B7047FB
:2026C00080B584B000AFF860B9607A603B603B68502B01D0022311E0BB68002B02DBBB68A9
:2026E0002A2B01DD032309E0BB68DB01054A134450221946786889F0D0FE00231846103733
:20270000BD4680BD9809002080B584B000AFF860B9607A603B603B68502B01D0022311E0B5
:20272000BB68002B02DBBB682A2B01DD032309E0BB68DB01054A134450227968184689F03A
:20274000ACFE002318461037BD4680BD9809002080B582B000AF0346FB71FB79052B26D899
:20276000FB79154ABC2101FB03F313440833B3F90030002B05D1FB790021184650F082FD96
:2027800015E0FB790C4ABC2101FB03F313440833B3F90030012B05D1FB790121184650F007
:2027A00071FD04E0FB790221184650F06BFD00BF0837BD4680BD00BF181F002080B582B06F
:2027C00000AF03460A46FB711346BB80FB79012B06D8BA88FB79114618464DF08BF807E021
:2027E000FB79023BDBB2BA88114618464DF058FB00BF0837BD4680BD90B583B000AF00238C
:20280000FB715AE0FB794C4ABC2101FB03F313442C334FF000021A60FC7955F021FA0246AB
:202820004549BC2304FB03F30B4474331A60FC7955F016FA02464049BC2304FB03F30B4408
:2028400070331A60FB793C4ABC2101FB03F3134428334FF000021A60FB79374ABC2101FB57
:2028600003F313442433354A1A60FB79324ABC2101FB03F313441C33304A1A60FB792E4A76
:20288000BC2101FB03F3134420334FF000021A60FB79294ABC2101FB03F31344083300229A
:2028A0001A80FB79244ABC2101FB03F31344783300221A80FB790133FB71FB79052BA1D9DD
:2028C0000023FB712FE0FB791B4ABC2101FB03F31344033300221A70FB79174ABC2101FBCB
:2028E00003F31344023300221A70FB79124ABC2101FB03F31344013300221A70FB790E4A08
:20290000BC2101FB03F31344063300221A70FB79094ABC2101FB03F31344073300221A70D9
:20292000FB790133FB71FB79052BCCD900BF00BF0C37BD4690BD00BF181F00200000C84209
:20294000B0B582B000AF4CF0EBFF4DF073FA46F0D5FD0346002B01D0FFF74EFF0023FB7142
:202960005CE00023BB7113E0FC79BD7955F078F902463F4923465B0023441B011B1B2B44BC
:202980001E339B000B4404331A60BB790133BB71BB790F2BE8D9FB79354ABC2101FB03F3C6
:2029A00013440C334FF000021A60FB79304ABC2101FB03F3134410334FF000021A60FB7940
:2029C0002B4ABC2101FB03F313441433294A1A60FB79274ABC2101FB03F313441833264A62
:2029E0001A60FB79224ABC2101FB03F313440833B3F90020FB7990B21D4ABC2101FB03F364
:202A00001344783302461A80FB79052B03D8FB791846FFF79DFEFB790133FB71FB79052B38
:202A20009FD90023FB7114E0FB79114ABC2101FB03F31344043300221A70FB790C4ABC211C
:202A400001FB03F31344053300221A70FB790133FB71FB79052BE7D9084B00221A700021B1
:202A6000074852F0E9FB00BF0837BD46B0BD00BF181F002017761772177617F2F23200206D
:202A8000EC32002080B586B000AF0346FB714FF000037B611023FB730023BB734AE0FA797C
:202AA000B97BC64813465B0013441B019B1A0B441E339B0003440433D3ED007AF0EEE77AC6
:202AC0009FEDBF7AF4EE477AF1EE10FA2CD8FA79B97BBA4813465B0013441B019B1A0B44CD
:202AE0001E339B0003440433D3ED007AF5EEC07AF1EE10FA1AD4FA79B97BB04813465B00EB
:202B000013441B019B1A0B441E339B0003440433D3ED007A9FEDAB7AF4EEC77AF1EE10FADD
:202B200004DCBB7BFB7308E000BF00E000BFBB7B0133BB73BB7B0F2BB1D94FF000033B615B
:202B4000FB7B102B09D1FB799C4ABC2101FB03F313442C331B683B610EE0FA79F97B974838
:202B600013465B0013441B019B1A0B441E339B00034404331B683B61FB79904ABC2101FB7A
:202B800003F313440833B3F90030002B13D1FA798D4913465B0013445B000B4402331B88EC
:202BA000BB81FA79884913465B0013445B000B441B887B8113E0FA79834913465B00134404
:202BC0005B000B4402331B88BB81FA797E4913465B0013445B000B4404331B887B81D7EDAE
:202BE000047AF5EEC07AF1EE10FA40F1A280FB79724ABC2101FB03F31344283393ED007A53
:202C0000D7ED047A77EE677AC7ED057AFB796B4ABC2101FB03F31344243393ED007AFB79E5
:202C2000664ABC2101FB03F313442833D3ED007A37EE677AD7ED056AC6EE877AC7ED057A08
:202C4000FB795E4ABC2101FB03F313440833B3F90030002B0FD1FB79D7ED057AB2EE047A3B
:202C600067EE877A554ABC2101FB03F313441033C3ED007A19E0FB79504ABC2101FB03F3F6
:202C800013440833B3F90030012B0ED1FB79D7ED057AB3EE047A67EE877A484ABC2101FB24
:202CA00003F313441033C3ED007AFB79434ABC2101FB03F31344243393ED007AFB793F4AE5
:202CC000BC2101FB03F313442833D3ED007A77EE677A97ED057A67EE277AC7ED047AFB7954
:202CE000364ABC2101FB03F31344283393ED007AD7ED057A77EE677AC7ED047A7A89B7F96B
:202D00000C30D31A07EE903AF8EEE77A97ED057A67EE277AC7ED057AB7F90C3007EE903AAD
:202D2000B8EEE77AD7ED057A77EE677AC7ED057AA9E0FB79214ABC2101FB03F313442833E7
:202D4000D3ED007A97ED047A77EE677AC7ED057AFB791A4ABC2101FB03F31344243393EDE9
:202D6000007AFB79154ABC2101FB03F313442833D3ED007A37EE677AD7ED056AC6EE877A5D
:202D8000C7ED057AFB790D4ABC2101FB03F313440833B3F90030002B18D1FB79D7ED057A2D
:202DA000B2EE047A67EE877A044ABC2101FB03F313441033C3ED007A22E000BF181F0020A6
:202DC000FFFF7F7F0000C842447F0220FB794E4ABC2101FB03F313440833B3F90030012B93
:202DE0000ED1FB79D7ED057AB3EE047A67EE877A454ABC2101FB03F313441033C3ED007AA6
:202E0000FB79414ABC2101FB03F31344243393ED007AFB793C4ABC2101FB03F313442833C1
:202E2000D3ED007A77EE677A97ED057A67EE277AC7ED047AFB79344ABC2101FB03F31344CF
:202E40002833D3ED007A97ED047A77EE277AC7ED047A7A89B7F90C30D31A07EE903AF8EE22
:202E6000E77A97ED057A67EE277AC7ED057AB7F90C3007EE903AF8EEE77A97ED057A77EE6B
:202E8000277AC7ED057AD7ED057AF5EEC07AF1EE10FA02D54FF000037B61D7ED057A9FED51
:202EA0001B7AF4EEC77AF1EE10FA01DD184B7B61FB79052B1BD8FB79134ABC2101FB03F31D
:202EC000134403331B78012B05D1FB7900211846FFF774FC0BE0D7ED057AFCEEE77A17EEF9
:202EE000903A9AB2FB7911461846FFF767FCFB79054ABC2101FB03F313440C333A691A60F5
:202F000000BF1837BD4680BD181F002000F07F4500F07F4580B582B000AFA34B1B781946AE
:202F2000A24ABC2301FB03F3134478331B8819469D4B1B7818469D4ABC2300FB03F31344E9
:202F40000833B3F9003099421BD0974B1B781946964ABC2301FB03F313440833B3F90020B1
:202F6000914B1B78184691B2904ABC2300FB03F3134478330A461A808B4B1B781846FFF7EE
:202F8000E7FB8B4B1B88002B40F00A81864B1B781946864ABC2301FB03F313440833B3F94E
:202FA0000030802B0DD0804B1B7819467F4ABC2301FB03F313440833B3F90030812B40F0B8
:202FC0009980794B1B78052B35D8774B1B781946764ABC2301FB03F3134403331B78002BB4
:202FE00015D1714B1A78704B1B7818466F49BC2300FB03F30B442C33D3ED007AFCEEE77A36
:2030000017EE903A9BB219461046FFF7D7FB664B1B781946644B1B781846644ABC2301FB4B
:2030200003F313442C331A686049BC2300FB03F30B4410331A605C4B1B7819465B4ABC23C0
:2030400001FB03F313440C3393ED007A564B1B781946564ABC2301FB03F313441433D3ED8C
:20306000007AB4EEE77AF1EE10FA13D54E4B1B7819464D4B1B7818464C4ABC2301FB03F387
:2030800013440C331A684949BC2300FB03F30B4414331A60444B1B781946444ABC2301FBBC
:2030A00003F313440C3393ED007A3F4B1B7819463E4ABC2301FB03F313441833D3ED007AD9
:2030C000B4EEE77AF1EE10FA19DD374B1B781946354B1B781846354ABC2301FB03F3134482
:2030E0000C331A683149BC2300FB03F30B4418331A6004E02C4B1B781846FFF7C3FC2A4B3B
:203100001B780133DAB2284B1A70294B32221A80254B1B78052B43D9234B00221A70002371
:20312000FB713AE0FB79214ABC2101FB03F3134404331B78012B11D1FB791C4ABC2101FB79
:2031400003F3134414331B4A1A60FB79174ABC2101FB03F31344043300221A70FB79134A4D
:20316000BC2101FB03F3134405331B78012B11D1FB790E4ABC2101FB03F3134418330E4ABB
:203180001A60FB79094ABC2101FB03F31344053300221A70FB790133FB71FB79052BC1D992
:2031A00000BF0837BD4680BDF2320020181F0020EC32002017761772177617F280B582B0E5
:2031C00000AF00237B601CE000233B6013E054F047FD01460F487A6813465B0013441B0166
:2031E0009B1A3A6813441E339B000344043319603B6801333B603B680F2BE8DD7B68013313
:203200007B607B68052BDFDD00BF00BF0837BD4680BD00BF181F002080B584B000AF786001
:203220000B46FB700023BB601CE00023FB6013E054F016FD01460F48BA6813465B00134405
:203240001B019B1AFA6813441E339B00034404331960FB680133FB60FB680F2BE8DDBB688A
:203260000133BB60BB68052BDFDD00BF00BF1037BD4680BD181F0020B0B58AB000AFF860EE
:20328000B9607A60FB683B62FB681833FB61FB69BB613B6A1B7D1846B9692F4ABC2300FBA1
:2032A00003F313440846194670231A4689F0F5F8BB68002B4BD07B68002B48D000237B622C
:2032C00041E07B681B78042B23D97B681B78142B1FD87B6858887B685C787B681B781F4A27
:2032E000DB0013441D793B6A1B7D1A467B681B78591F13465B0013441B019B1A0B441E33FF
:203300009B00154A134404332A46214649F0FCFB13E07B68197807F11303BA690F4849F0F6
:203320003FFB78617B69002B07D07B6858887B685978FA7C7B6949F0E7FB7B6804337B60B3
:203340007B6A01337B627A6ABB689A42B9DB00BF2837BD46B0BD00BF181F00208828110893
:2033600090B58BB002AFF8607A601A460B46FB721346BB72FB68FB61FB681833BB61BB6999
:203380007B61BB7A2222934280F28880FB691B7D18467969444ABC2300FB03F3134408464A
:2033A000194670231A4689F078F8FB7A062B5CD1BB7A3E4ADB0013441B79062B55D1BB7AF0
:2033C000042B52D9BB7A142B4FD8FB691B7D1A46BB7A581F7B681968334C13465B00134402
:2033E0001B019B1A03441E339B00234404331960BB7A052B1AD1FB691B7D1A46BB7A591F59
:20340000FB691B7D1C46284813465B0013441B019B1A0B441E339B00034404331A6822495C
:20342000BC2304FB03F30B4470331A60BB7A0C2B36D1FB691B7D1A46BB7A591FFB691B7DD4
:203440001C46194813465B0013441B019B1A0B441E339B00034404331A681349BC2304FB58
:2034600003F30B4474331A601AE0B97AFA7ABB6900930B4679680D4849F04FFFFB691B7D84
:203480001946094ABC2301FB03F31A447B691046194670231A4689F000F802E000BF00E0CD
:2034A00000BF2437BD4690BD181F00208828110880B483B000AF88237B607B6818460C3762
:2034C000BD465DF8047B704780B582B000AF0023FB7107E0FB7900211846FFF76FF9FB790D
:2034E0000133FB71FB79052BF4D900BF00BF0837BD4680BD80B584B000AFF860B9607A605B
:203500003B603B68702B01D0022313E1BB68002B02DBBB681A2B01DD03230BE1874ABB6871
:20352000BC2101FB03F313447C331A688349BB68BC2000FB03F30B4430331A607F4ABB6860
:20354000BC2101FB03F3134480331A687B49BB68BC2000FB03F30B4434331A60774ABB6848
:20356000BC2101FB03F3134484331A687349BB68BC2000FB03F30B4438331A606F4ABB6830
:20358000BC2101FB03F3134488331A686B49BB68BC2000FB03F30B443C331A60674ABB6818
:2035A000BC2101FB03F313448C331A686349BB68BC2000FB03F30B4440331A605F4ABB6800
:2035C000BC2101FB03F3134490331A685B49BB68BC2000FB03F30B4444331A60574ABB68E8
:2035E000BC2101FB03F3134494331A685349BB68BC2000FB03F30B4448331A604F4ABB68D0
:20360000BC2101FB03F3134498331A684B49BB68BC2000FB03F30B444C331A60474ABB68B7
:20362000BC2101FB03F313449C331A684349BB68BC2000FB03F30B4450331A603F4ABB689F
:20364000BC2101FB03F31344A0331A683B49BB68BC2000FB03F30B4454331A60374ABB6887
:20366000BC2101FB03F31344A4331A683349BB68BC2000FB03F30B4458331A602F4ABB686F
:20368000BC2101FB03F31344A8331A682B49BB68BC2000FB03F30B445C331A60274ABB6857
:2036A000BC2101FB03F31344AC331A682349BB68BC2000FB03F30B4460331A601F4ABB683F
:2036C000BC2101FB03F31344B0331A681B49BB68BC2000FB03F30B4464331A60174ABB6827
:2036E000BC2101FB03F31344B4331A681349BB68BC2000FB03F30B4468331A600F4ABB680F
:20370000BC2101FB03F31344B8331A680B49BB68BC2000FB03F30B446C331A60BB68BC2269
:2037200002FB03F3054A134470221946786888F0B4FE002318461037BD4680BD181F002096
:2037400080B584B000AFF860B9607A603B603B68702B01D0022333E1BB68002B02DBBB68D5
:203760001A2B01DD03232BE1BB68BC2202FB03F3954A134470227968184688F08EFE924A19
:20378000BB68BC2101FB03F3134430331A688E49BB68BC2000FB03F30B447C331A608A4AE8
:2037A000BB68BC2101FB03F3134434331A688649BB68BC2000FB03F30B4480331A60824AD0
:2037C000BB68BC2101FB03F3134438331A687E49BB68BC2000FB03F30B4484331A607A4AB8
:2037E000BB68BC2101FB03F313443C331A687649BB68BC2000FB03F30B4488331A60724AA0
:20380000BB68BC2101FB03F3134440331A686E49BB68BC2000FB03F30B448C331A606A4A87
:20382000BB68BC2101FB03F3134444331A686649BB68BC2000FB03F30B4490331A60624A6F
:20384000BB68BC2101FB03F3134448331A685E49BB68BC2000FB03F30B4494331A605A4A57
:20386000BB68BC2101FB03F313444C331A685649BB68BC2000FB03F30B4498331A60524A3F
:20388000BB68BC2101FB03F3134450331A684E49BB68BC2000FB03F30B449C331A604A4A27
:2038A000BB68BC2101FB03F3134454331A684649BB68BC2000FB03F30B44A0331A60424A0F
:2038C000BB68BC2101FB03F3134458331A683E49BB68BC2000FB03F30B44A4331A603A4AF7
:2038E000BB68BC2101FB03F313445C331A683649BB68BC2000FB03F30B44A8331A60324ADF
:20390000BB68BC2101FB03F3134460331A682E49BB68BC2000FB03F30B44AC331A602A4AC6
:20392000BB68BC2101FB03F3134464331A682649BB68BC2000FB03F30B44B0331A60224AAE
:20394000BB68BC2101FB03F3134468331A681E49BB68BC2000FB03F30B44B4331A601A4A96
:20396000BB68BC2101FB03F313446C331A681649BB68BC2000FB03F30B44B8331A60124A7E
:20398000BB68BC2101FB03F313447C331A680E49BB68BC2000FB03F30B4470331A600A4AA6
:2039A000BB68BC2101FB03F3134498331A680649BB68BC2000FB03F30B4474331A6000239F
:2039C00018461037BD4680BD181F0020F8B500AFC0223349334888F060FD334A334B104650
:2039E000194680231A4688F058FD314A314B1046194660231A4688F050FD2F4A2F4B1046FB
:203A000003F1200402461946D1F800C04E688D68C968C2F800C056609560D16010331030A9
:203A2000A342EFD102461B68136060222449254888F033FD244A254B104603F140040246EB
:203A40001946D1F800C04E688D68C968C2F800C056609560D16010331030A342EFD11C4ABE
:203A60001C4B104603F1300402461946D1F800C04E688D68C968C2F800C056609560D160FF
:203A800010331030A342EFD1134B144A146850689168D2681C6058609960DA6000BFF8BD00
:203AA0005075110858800220787F022010761108F87F022090761108447F0220F07611085A
:203AC0001477110888810220188102207477110858810220B4771108687F0220E47711089C
:203AE00080B500AF054B00221A7045F007FD0346002B01D0FFF76AFF00BF80BDF4320020C7
:203B000080B400AF044B1B7803F00103DBB21846BD465DF8047B7047F432002080B483B0C3
:203B200000AF0023FB7148E0FA7932491346DB0013449B000B44013300221A70FA792D49F3
:203B40001346DB0013449B000B44113300221A70FA7928491346DB0013449B000B440B3369
:203B600000221A70FA7923491346DB0013449B000B440A3300221A70FA791E491346DB004E
:203B800013449B000B44053300221A70FA7919491346DB0013449B000B44063300221A70D1
:203BA000FA7914491346DB0013449B000B44073300221A70FB790133FB71FB79072BB3D994
:203BC0000023FB710CE0FA790A491346DB0013449B000B44163305221A80FB790133FB7111
:203BE000FB79072BEFD900BF00BF0C37BD465DF8047B7047F832002080B582B000AF45F073
:203C00007DFC0346002B01D0FFF788FF4BF064FF5E4B00221A7001215D4851F00DFB002343
:203C2000FB7170E0FA795B491346DB0013449B000B44013300221A70FA7956491346DB0016
:203C400013449B000B44043300221A70FA7951491346DB0013449B000B44033300221A70DC
:203C6000FA794C491346DB0013449B000B44023300221A70FA7947491346DB0013449B00BD
:203C80000B440E3300221A70FA7942491346DB0013449B000B440D3300221A70FA793D4990
:203CA0001346DB0013449B000B44103300221A70FA7938491346DB0013449B000B440F33F5
:203CC00000221A70FA7933491346DB0013449B000B440C3300221A70FA792E491346DB00CB
:203CE00013449B000B44093300221A70FA7929491346DB0013449B000B44083300221A705A
:203D0000FB790133FB71FB79072B8BD90023FB7134E0FA791F491346DB0013449B000B4492
:203D2000143300221A80FA791A491346DB0013449B000B44123300221A80FA79154913460A
:203D4000DB0013449B000B441C3300221A60FA7910491346DB0013449B000B4418330022AE
:203D60001A60FA790B491346DB0013449B000B44203300221A70FB790133FB71FB79072BD4
:203D8000C7D900BF00BF0837BD4680BDE2430020DC430020F832002080B582B000AF034659
:203DA000FB710B46BB7113467B71BA79FB79114618464FF0A5FA7B79002B79D1BB79002BD3
:203DC0003AD0FA79A6491346DB0013449B000B44203393F90030002B0ADAFA79A04913462F
:203DE000DB0013449B000B44203301221A70EFE1FA799B491346DB0013449B000B442033B8
:203E000093F900300F2B53DCFA7995491346DB0013449B000B44203393F90030DBB20133E7
:203E2000DBB258B28E491346DB0013449B000B44203302461A70CBE1FA7989491346DB0055
:203E400013449B000B44203393F90030002B0ADDFA7983491346DB0013449B000B442033F9
:203E6000FF221A70B4E1FA797D491346DB0013449B000B44203393F9003013F10F0F17DB31
:203E8000FA7977491346DB0013449B000B44203393F90030DBB2013BDBB258B270491346F9
:203EA000DB0013449B000B44203302461A708FE1FA796B491346DB0013449B000B440A3378
:203EC0001B78002B11D1FA7965491346DB0013449B000B440B331B78002B06D0BB79002B7B
:203EE0000CBF01230023DBB2BB71BB79002B00F0B980FA795A491346DB0013449B000B44E4
:203F000001331B78002B2AD1FA7955491346DB0013449B000B441C3300221A60FA79504937
:203F20001346DB0013449B000B441433B3F900309BB201339BB218B249491346DB00134434
:203F40009B000B44143302461A80FA7944491346DB0013449B000B44043301221A70FA7982
:203F60003F491346DB0013449B000B4405331B78012B60D1FA793A491346DB0013449B0000
:203F80000B4406331B78012B1FD1FA7934491346DB0013449B000B441C331968FA793048CA
:203FA0001346DB0013449B0003441633B3F9003099424AD3FA792A491346DB0013449B006B
:203FC0000B44023301221A703FE0FA7924491346DB0013449B000B4402331B78012B34D143
:203FE000FA791F491346DB0013449B000B441C331968FA791A481346DB0013449B0003445F
:204000001633B3F9003099421FD3FA7914491346DB0013449B000B4407331B78002B14D18C
:20402000FA790F491346DB0013449B000B44023300221A7009E0FA7909491346DB00134426
:204040009B000B44023300221A70FA7904491346DB0013449B000B44013301221A70B7E0E8
:20406000F8320020FA795C491346DB0013449B000B4401331B78012B2AD1FA795649134610
:20408000DB0013449B000B44183300221A60FA7951491346DB0013449B000B441233B3F9AA
:2040A00000309BB201339BB218B24B491346DB0013449B000B44123302461A80FA79464906
:2040C0001346DB0013449B000B44033301221A70FA7941491346DB0013449B000B440533DE
:2040E0001B78012B60D1FA793B491346DB0013449B000B4406331B78002B1FD1FA7936498B
:204100001346DB0013449B000B4418331968FA7931481346DB0013449B0003441633B3F910
:20412000003099424AD3FA792B491346DB0013449B000B44023301221A703FE0FA79264918
:204140001346DB0013449B000B4402331B78012B34D1FA7920491346DB0013449B000B44A0
:2041600018331968FA791C481346DB0013449B0003441633B3F9003099421FD3FA7916496B
:204180001346DB0013449B000B4407331B78002B14D1FA7910491346DB0013449B000B448C
:2041A000023300221A7009E0FA790B491346DB0013449B000B44023300221A70FA79064956
:2041C0001346DB0013449B000B44013300221A700837BD4680BD00BFF832002080B483B09B
:2041E00000AF0346FB71FA7979491346DB0013449B000B4409331B78012B13D1FA797449A2
:204200001346DB0013449B000B44043300221A70FA796F491346DB0013449B000B4409336A
:2042200000221A70FA796A491346DB0013449B000B4408331B78012B13D1FA7964491346E0
:20424000DB0013449B000B44033300221A70FA795F491346DB0013449B000B440833002273
:204260001A70FA795A491346DB0013449B000B440E331B78012B13D1FA7955491346DB0000
:2042800013449B000B44143300221A80FA7950491346DB0013449B000B440E3300221A706C
:2042A000FA794B491346DB0013449B000B440D331B78012B13D1FA7945491346DB00134413
:2042C0009B000B44123300221A80FA7940491346DB0013449B000B440D3300221A70FA7923
:2042E0003B491346DB0013449B000B4410331B78012B13D1FA7936491346DB0013449B00C7
:204300000B441C3300221A60FA7931491346DB0013449B000B44103300221A70FA792C492A
:204320001346DB0013449B000B440F331B78012B13D1FA7926491346DB0013449B000B44CC
:20434000183300221A60FA7921491346DB0013449B000B440F3300221A70FA791C49134605
:20436000DB0013449B000B4407331B78012B1FD1FA7917491346DB0013449B000B440C33B1
:204380001B78012B1ED1FA7911491346DB0013449B000B44023300221A70FA790C4913462B
:2043A000DB0013449B000B440C3300221A7009E0FA7907491346DB0013449B000B440C3396
:2043C00000221A7000BF0C37BD465DF8047B7047F832002090B583B000AF534B1B781946A0
:2043E000524A0B46DB000B449B0013440A331B78012B11D14C4B18784B4B1B7819464B4A92
:204400000B46DB000B449B00134411331B7801221946FFF7C1FC0CE0434B1C78424B1B78F5
:204420001846FCF7DDF80346002219462046FFF7B3FC3F4B1B88B3F57A7F57D33C4B1B885F
:20444000A3F57A739AB23A4B1A800023FB714AE0FA7936491346DB0013449B000B44013318
:204460001B78012B1ED1FA7930491346DB0013449B000B441C331B68B3F1FF3F30D0FA7906
:204480002A491346DB0013449B000B441C331B68591C26481346DB0013449B0003441C33C3
:2044A00019601DE0FA7921491346DB0013449B000B4418331B68B3F1FF3F11D0FA791B49CC
:2044C0001346DB0013449B000B4418331B68591C16481346DB0013449B0003441833196095
:2044E000FB790133FB71FB79072BB1D90E4B1B780133DAB20C4B1A700B4B1B78072B0FD9E8
:204500000023FB7106E0FB791846FFF767FEFB790133FB71FB79072BF5D9034B00221A7077
:2045200000BF0C37BD4690BDE2430020F8320020DC43002080B483B000AF0346FB71044A42
:20454000FB79137000BF0C37BD465DF8047B7047D843002080B400AF034B1B781846BD4674
:204560005DF8047B704700BFD843002080B483B000AF78600B46FB7000BF0C37BD465DF8B2
:20458000047B7047B0B588B000AFF860B9607A60FB68FB61FB681833BB61BB697B61FB6961
:2045A0001B7D194678690C4A0B46DB000B449B00134404461D460FCD0FC495E80F0084E80C
:2045C0000F00BB68D9B2BB697A68044848F0C6FA00BF2037BD46B0BDF8320020982911082A
:2045E000B0B58AB002AFF8607A601A460B46FB721346BB72FB68FB61FB681833BB61BB69E8
:204600007B61FB691B7D19467869164A0B46DB000B449B00134404461D460FCD0FC495E8DC
:204620000F0084E80F00B97AFA7ABB6900930B4679680D4848F071FEFB691B7D1946094AB6
:204640000B46DB000B449B001A447B6914461D460FCD0FC495E80F0084E80F0000BF203779
:20466000BD46B0BDF83200209829110880B483B000AF38237B607B6818460C37BD465DF87E
:20468000047B704780B584B000AFF860B9607A603B603B68202B01D0022314E0BB68002BC0
:2046A00002DBBB68772B01DD03230CE0BA681346DB0013449B00064A1344202219467868F8
:2046C00087F0EBFE002318461037BD4680BD00BFF832002080B584B000AFF860B9607A6006
:2046E0003B603B68202B01D0022314E0BB68002B02DBBB68772B01DD03230CE0BA681346EC
:20470000DB0013449B00064A134420227968184687F0C3FE002318461037BD4680BD00BFA5
:20472000F832002080B483B000AF0023FB7117E0FB79314A9B0113441C3300221A80FB7932
:204740002D4A9B0113441E3300221A80FB792A4A9B0113441A3300221A80FB790133FB71EA
:20476000FB79052BE4D90023FB713AE0FB79224A9B011344123300221A70FB791E4A9B01F3
:204780001344133300221A70FB791B4A9B011344143300221A70FB79174A9B0113442C33EA
:2047A00000221A70FB79144A9B0113442D3300221A70FB79104A9B0113442E3300221A70AE
:2047C000FB790D4A9B0113442F3300221A70FB79094A9B0113441533FF221A70FB790133B8
:2047E000FB71FB79052BC1D900BF00BF0C37BD465DF8047B704700BFE443002080B582B053
:2048000000AF4BF0AFF90023FB7109E0FB790433DBB2002118464BF01DFAFB790133FB7171
:20482000FB79052BF2D9524B00221A700023FB7125E0FB794F4A9B011344013300221A704C
:20484000FB794C4A9B011344173300221A70FB79484A9B011344193300221A70FB79454A71
:204860009B011344163300221A70FB79414A9B011344183300221A70FB790133FB71FB79DF
:20488000052BD6D90023FB711EE0FB79394A9B011344203300221A80FB79364A9B011344CC
:2048A000223300221A80FB79324A9B011344283300221A60FB792F4A9B01134424330022B4
:2048C0001A60FB790133FB71FB79052BDDD90023FB7114E00023BB710BE0FA79BB7925491E
:2048E00092010A441344303302221A70BB790133BB71BB790F2BF0D9FB790133FB71FB791C
:20490000052BE7D901211C4850F096FC00211B4850F0C2FC44F0F2FD0346002B01D0FFF76F
:2049200001FF0023FB711AE0FB79124A9B01134415331B78002B0FD0FB790E4A9B01134487
:204940001C33B3F90030002B06D0FB79094A9B011344353300221A70FB790133FB71FB79D5
:20496000052BE1D900BF00BF0837BD4680BD00BFA44A0020E4430020A84A0020B04A002010
:2049800080B582B000AF03460A46FB711346BB71FB79052B07D8FB790433DBB2BA79114632
:2049A00018464BF057F900BF0837BD4680BD80B582B000AF0346FB71FB79284A9B0113442C
:2049C00013331B78012B08D1FB79052B41D8FB7900211846FFF7D4FF3BE0FB791F4A9B01EC
:2049E000134401331B78012B19D1FB791B4A9B01134414331B78012B08D1FB79052B29D833
:204A0000FB7900211846FFF7BBFF23E0FB79052B20D8FB7901211846FFF7B2FF1AE0FB794B
:204A20000E4A9B01134414331B78012B08D1FB79052B0FD8FB7901211846FFF7A1FF09E04E
:204A4000FB79052B06D8FB7900211846FFF798FF00E000BF0837BD4680BD00BFE443002030
:204A600080B485B000AF0346FB711023FB7300237B73FB793C4A9B01134435331B78012BA3
:204A800016D1FB79384A9B01134428331B68FA79354992010A441E32B2F90020934225D3AE
:204AA000FB79314A9B011344353302221A701DE0FB792D4A9B01134435331B78002B15D117
:204AC000FB79294A9B01134424331B68FA79264992010A441C32B2F90020934206D3FB7924
:204AE000214A9B011344353302221A700023BB7310E0FA79BB7B1C4992010A441344303358
:204B00001B78022B02D0BB7BFB7306E000BFBB7B0133BB73BB7B0F2BEBD9FB7B102B0DD15F
:204B2000FB79114A9B01134412331B78012B02D101237B7311E000237B730EE0FA79FB7BF1
:204B4000094992010A44134430331B78012B02D101237B7301E000237B737B7B1846143733
:204B6000BD465DF8047B7047E443002080B582B000AFA14B1B88B3F57A7F30D39E4B1B888B
:204B8000A3F57A739AB29C4B1A800023FB7123E0FB799A4A9B01134401331B78012B0CD116
:204BA000FB7996499A010A4428321268013293499B010B4428331A600BE0FB798F499A0144
:204BC0000A442432126801328C499B010B4424331A60FB790133FB71FB79052BD8D9884BB7
:204BE0001B88002B40F09580864B1B781846FFF737FF0346FB70834B1B78804A9B011344E2
:204C000001331B78BB70BA78FB789A427CD0FB78002B23D07B4B1B78784A9B0113441E33E5
:204C2000B3F90030BB80774B1B78744A9B011344283300221A60734B1B7870499A010A446D
:204C40002232B2F9002092B2013292B211B26B4A9B01134422330A461A8022E0694B1B7887
:204C6000664A9B0113441C33B3F90030BB80654B1B78624A9B011344243300221A60614BAA
:204C80001B785E499A010A442032B2F9002092B2013292B211B2594A9B01134420330A461D
:204CA0001A80BB88002B08D0564B1B78534A9B0113443533FA781A7007E0524B1B784F4A3C
:204CC0009B011344353302221A70FB78002B08D04C4B1B78494A9B011344013301221A70C4
:204CE00007E0484B1B78454A9B011344013300221A70444B1B78414A9B0113441A33B3F9AC
:204D000000309AB23E4B1A803E4B1B781846FFF74EFE3C4B1B780133DAB23A4B1A70394BCB
:204D20001B78052B63D9374B00221A700023FB715AE0FB79314A9B01134417331B78012B92
:204D40000DD1FB792D4A9B011344223300221A80FB792A4A9B011344173300221A70FB7941
:204D6000264A9B01134416331B78012B0DD1FB79224A9B011344203300221A80FB791F4A2B
:204D80009B011344163300221A70FB791B4A9B01134419331B78012B0DD1FB79174A9B0105
:204DA0001344283300221A60FB79144A9B011344193300221A70FB79104A9B0113441833DC
:204DC0001B78012B0DD1FB790C4A9B011344243300221A60FB79094A9B011344183300225F
:204DE0001A70FB790133FB71FB79052BA1D900BF0837BD4680BD00BFA84A0020E4430020A1
:204E0000B04A0020A44A002080B483B000AF00237B6014E000233B600BE00E4A7B689B01E2
:204E20001A443B681344303302221A703B6801333B603B680F2BF0DD7B6801337B607B6818
:204E4000052BE7DD00BF00BF0C37BD465DF8047B704700BFE443002080B485B000AF786019
:204E60000B46FB700023BB6014E00023FB600BE00D49FA6813469B0113440B443033022201
:204E80001A70FB680133FB60FB680F2BF0DDBB680133BB60BB68052BE7DD00BF00BF1437DA
:204EA000BD465DF8047B7047E4430020B0B58AB000AFF860B9607A60FB683B62FB681833D6
:204EC000FB61FB69BB613B6A1B7DB9692C4A9B0113440C461D460FCD0FC40FCD0FC495E89E
:204EE000070084E80700BB68002B44D07B68002B41D000237B623AE07B681B78042B1CD903
:204F00007B681B78142B18D87B6858887B6859787B681B781B4ADB0013441C793B6A1B7D96
:204F20001A467B681B78053B920113443033144A1344224647F0E8FD13E07B68197807F176
:204F40001303BA690F4847F02BFD78617B69002B07D07B6858887B685978FA7C7B6947F09B
:204F6000D3FD7B6804337B607B6A01337B627A6ABB689A42C0DB00BF2837BD46B0BD00BFAB
:204F8000E4430020502A1108B0B58AB002AFF8607A601A460B46FB721346BB72FB68FB6152
:204FA000FB681833BB61BB697B61BB7A2122934280F2BD80FB691B7D7969604A9B011344B0
:204FC0000C461D460FCD0FC40FCD0FC495E8070084E80700BB7A012B40F28F80BB7A112BB4
:204FE00000F28B807B683B61FB691B7D1C46BB7A023B3A6910785149A2010A4413443033F5
:2050000002461A70BB7A022B39D13B691B78002B10D1FB691B7D494A9B0113442E33012209
:205020001A70FB691B7D454A9B0113442F3300221A7024E03B691B78012B10D1FB691B7D16
:205040003E4A9B0113442E3300221A70FB691B7D3A4A9B0113442F3301221A700FE0FB69F3
:205060001B7D364A9B0113442E3300221A70FB691B7D324A9B0113442F3300221A70BB7A6A
:20508000092B56D13B691B78002B10D1FB691B7D2A4A9B0113442C3301221A70FB691B7D07
:2050A000264A9B0113442D3300221A7041E03B691B78012B10D1FB691B7D204A9B011344C3
:2050C0002C3300221A70FB691B7D1C4A9B0113442D3301221A702CE0FB691B7D174A9B015E
:2050E00013442C3300221A70FB691B7D134A9B0113442D3300221A701BE0B97AFA7ABB6930
:2051000000930B4679680E4848F007F9FB691B7D0A4A9B011A447B6914461D460FCD0FC4A2
:205120000FCD0FC495E8070084E8070002E000BF00E000BF2037BD46B0BD00BFE4430020BC
:20514000502A110880B483B000AF44237B607B6818460C37BD465DF8047B704780B582B0EB
:2051600000AF0023FB7109E0FB790433DBB2002118464AF06FFDFB790133FB71FB79052BF3
:20518000F2D900BF00BF0837BD4680BD80B584B000AFF860B9607A603B603B682C2B01D07E
:2051A0000223E1E0BB68002B02DBBB681A2B01DD0323D9E06E4ABB689B01134430331978F7
:2051C0006B4ABB689B01134402330A461A70684ABB689B01134431331978654ABB689B01CA
:2051E000134403330A461A70614ABB689B011344323319785E4ABB689B01134404330A464C
:205200001A705B4ABB689B01134433331978584ABB689B01134405330A461A70544ABB68C7
:205220009B01134434331978514ABB689B01134406330A461A704E4ABB689B0113443533A9
:2052400019784B4ABB689B01134407330A461A70474ABB689B01134436331978444ABB68AC
:205260009B01134408330A461A70414ABB689B011344373319783E4ABB689B0113440933B0
:205280000A461A703A4ABB689B01134438331978374ABB689B0113440A330A461A70344A72
:2052A000BB689B01134439331978314ABB689B0113440B330A461A702D4ABB689B011344A5
:2052C0003A3319782A4ABB689B0113440C330A461A70274ABB689B0113443B331978244A39
:2052E000BB689B0113440D330A461A70204ABB689B0113443C3319781D4ABB689B01134481
:205300000E330A461A701A4ABB689B0113443D331978174ABB689B0113440F330A461A7064
:20532000134ABB689B0113443E331978104ABB689B01134410330A461A700D4ABB689B0155
:2053400013443F3319780A4ABB689B01134411330A461A70BB689B01054A13442C22194659
:20536000786887F09AF8002318461037BD4680BDE443002080B584B000AFF860B9607A6092
:205380003B603B682C2B01D0022366E1BB68002B02DBBB681A2B01DD03235EE1BB689B01A6
:2053A000B04A13442C227968184687F076F8AD4ABB689B01134401331978AA4ABB689B01A5
:2053C000134401330A461A70A64ABB689B01134402331978A34ABB689B01134430330A46E6
:2053E0001A70A04ABB689B011344033319789D4ABB689B01134431330A461A70994ABB681B
:205400009B01134404331978964ABB689B01134432330A461A70934ABB689B011344053371
:205420001978904ABB689B01134433330A461A708C4ABB689B01134406331978894ABB68FF
:205440009B01134434330A461A70864ABB689B01134407331978834ABB689B01134435331C
:205460000A461A707F4ABB689B011344083319787C4ABB689B01134436330A461A70794AC5
:20548000BB689B01134409331978764ABB689B01134437330A461A70724ABB689B0113443D
:2054A0000A3319786F4ABB689B01134438330A461A706C4ABB689B0113440B331978694ABC
:2054C000BB689B01134439330A461A70654ABB689B0113440C331978624ABB689B01134419
:2054E0003A330A461A705F4ABB689B0113440D3319785C4ABB689B0113443B330A461A70D1
:20550000584ABB689B0113440E331978554ABB689B0113443C330A461A70524ABB689B01A8
:2055200013440F3319784F4ABB689B0113443D330A461A704B4ABB689B01134410331978C9
:20554000484ABB689B0113443E330A461A70454ABB689B01134411331978424ABB689B0193
:2055600013443F330A461A703E4ABB689B01134430331B78022B0ED13A4ABB689B0113444E
:205580002E3300221A70374ABB689B0113442F3300221A7024E0334ABB689B01134430335F
:2055A0001B78012B0ED12F4ABB689B0113442E3300221A702B4ABB689B0113442F330122A1
:2055C0001A700DE0274ABB689B0113442E3301221A70244ABB689B0113442F3300221A702D
:2055E000204ABB689B01134437331B78022B0ED11C4ABB689B0113442C3300221A70194A38
:20560000BB689B0113442D3300221A7024E0154ABB689B01134437331B78012B0ED1114A8C
:20562000BB689B0113442C3300221A700D4ABB689B0113442D3301221A700DE0094ABB686C
:205640009B0113442C3301221A70064ABB689B0113442D3300221A70002318461037BD460E
:2056600080BD00BFE443002080B582B000AF244B1B78042B3FD90023FB7138E0FB79214A02
:20568000D35C002B30D0FB7918464AF041FA0346002B20D0FB791C4AD35C002B24D1FB7968
:2056A0001A4A32F81320013291B2184A22F81310FB79164A32F81330022B15D9FB79144AE6
:2056C00052F823200132124941F82320FB790E4AFF21D15408E0FB790B4A0021D154FB79B7
:2056E0000A4A002122F81310FB790133FB71FB790B2BC3D900E000BF0837BD4680BD00BFC1
:20570000464C0020D44B0020C84B0020B04B0020204B002080B483B000AF00237B6015E0B6
:20572000164A7B68002142F82310154A7B689B0013444FF07E521A60124A7B689B001344AA
:205740004FF07E521A607B6801337B607B680B2BE6DD00237B6007E00B4A7B68134400225C
:205760001A707B6801337B607B68012BF4DD00BF00BF0C37BD465DF8047B7047204B0020F3
:20578000C04A0020F04A0020B84A002080B582B000AFFFF7BFFF4AF029F84C484AF050F828
:2057A0000023FB7000237B600AE0494A7B6813441B78002B01D00123FB707B6801337B6096
:2057C0007B68012BF1DDFB7818464AF049F800237B604BE03F4A7B68002122F813103E4A25
:2057E0007B68134400221A703C4A7B6852F823203B497B6841F82320384A7B6852F82330E8
:2058000007EE903AB8EE677A364A7B689B001344D3ED007A67EE277A334A7B689B0013446B
:20582000C3ED007A304A7B689B00134493ED007A2E4A7B689B001344D3ED007A67EE277A78
:205840002B4A7B689B001344C3ED007A7B689BB25B0099B2274A7B6822F81310264A7B681A
:20586000134400221A707B6801337B607B680B2BB0DD00237B6015E0204A7B6813440022D4
:205880001A701F4A7B68134400221A70104A7B68134419781B4A7B6813440A461A707B68AE
:2058A00001337B607B68012BE6DD174B00221A70164B00221A70164B00221A800121144851
:2058C0004FF0BAFC00BF0837BD4680BD69560808B84A0020B04B0020C84B0020204B0020CB
:2058E000E44B0020C04A0020504B0020F04A0020804B0020204C0020384C0020144C00207F
:20590000BC4A0020444C0020464C0020E04B0020184C002080B584B000AFA44B1B78DB08B3
:205920003B73A24B1B7803F00703012202FA03F3FB723B7B9E4AD25CFB7A1340DBB2002B6E
:2059400006D09A4B1B781A469A4BFF21995405E0964B1B781A46974B00219954934B1B788D
:205960001A46954B53F82220904B1B781946934B53F821309A4242D08C4B1B781A468F4B81
:2059800053F822307B60894B1B7819468A4A7B6842F821307B6807EE903AB8EE677A834B90
:2059A0001B78874A9B001344D3ED007A7F4B1B7867EE277A834A9B001344C3ED007A7B4B55
:2059C0001B78804A9B00134493ED007A774B1B787D4A9B001344D3ED007A744B1B7867EE8F
:2059E000277A7A4A9B001344C3ED007A6F4B1B781A46774B01219954764B01221A706B4B84
:205A00001B781A46744B33F812301D2B1ED9674B1B781A466E4B9B5C002B17D04DF0BEFDC9
:205A2000624B1B781A46654B53F822307B605F4B1B781A46664B002199545C4B1B781A46A8
:205A4000654B002123F812104DF0A8FD574B1B780133DAB2554B1A70544B1B780B2B40F29D
:205A6000A1800023FB732AE0FB7BDB083B73FB7B03F00703012202FA03F3FB723B7B574A17
:205A8000D25CFB7A1340DBB2002B15D03B7B544AD25CFB7A1340DBB2002B0DD1FB7B474A8C
:205AA000002142F82310FB7B4B4A1E2122F81310FB7B474A0121D154FB7B0133FB73FB7BF5
:205AC0000B2BD1D90023FB730CE0FA7BFB7B4349895C434AD154FB7B404A0021D154FB7B9F
:205AE0000133FB73FB7B012BEFD9304B00221A7000237B730023BB730023FB7319E0FB7B11
:205B00002B4AD35C002B01D00123BB73FB7B354AD25CFB7B2649CB5C9A4207D0FA7BFB7BC6
:205B20002349895C2F4AD15401237B73FB7B0133FB73FB7B012BE2D97B7B002B03D0BB7BC5
:205B4000184649F08DFE284B1B88B3F57A7F29D3254B1B88A3F57A739AB2234B1A80234B16
:205B60001B78632B05D8214B1B780133DAB21F4B1A700023FB7312E0FB7B174A32F81330AD
:205B8000B3F57A7F08D2FB7B134A32F81320013291B2114A22F81310FB7B0133FB73FB7BBE
:205BA0000B2BE9D900BF1037BD4680BDE04B0020B84A0020D44B0020E44B0020204B002021
:205BC000C04A0020504B0020F04A0020804B0020384C0020474C0020204C0020BC4A002092
:205BE000144C0020444C0020184C0020464C002080B483B000AF0346FB71044AFB7913702F
:205C000000BF0C37BD465DF8047B7047474C002080B400AF034B1B781846BD465DF8047B48
:205C2000704700BF474C002080B483B000AF78600B46FB7000BF0C37BD465DF8047B704701
:205C400080B586B000AFF860B9607A60FB687B617B691B7D18467B68BA68034946F0B1FF8F
:205C600000BF1837BD4680BD582B110880B400AF18231846BD465DF8047B704780B588B0C3
:205C800002AFF8607A601A460B46FB721346BB72FB687B617B691B7D1846FA7ABB7A009328
:205CA0007B68034947F06FFA00BF1837BD4680BD582B110880B483B000AF0346FB71FB79EC
:205CC000084AD35C002B07D0FB79074A52F823200132054941F8232000BF0C37BD465DF898
:205CE000047B7047D44B0020204B002080B58CB000AFF860B9607A603B603B68182B01D0E7
:205D0000022357E0BB68002B02DBBB680B2B01DD03234FE0BB68002B00DA0733DB1087F8A4
:205D20002F30BB6803F00703012202FA03F387F82E3097F82F30214AD25C97F82E3013402B
:205D4000DBB2002B14BF01230023DBB23B7597F82F301B4AD25C97F82E301340DBB2002BBB
:205D600014BF01230023DBB27B75164ABB6852F82330BB61144ABB689B0013441B68FB61FE
:205D8000124ABB689B0013441B683B62104ABB689B0013441B687B620E4ABB689B00134436
:205DA0001B68BB6207F1140318221946786886F074FB002318463037BD4680BDBC4A002088
:205DC000B84A0020204B0020C04A0020F04A0020504B0020804B002080B58CB000AFF86074
:205DE000B9607A603B603B68182B01D002237BE0BB68002B02DBBB680B2B01DD032373E003
:205E0000BB68002B00DA0733DB1087F82F30BB6803F00703012202FA03F387F82E3007F14D
:205E2000140318227968184686F037FB3B7D002B0CD097F82F302E4AD15C97F82F3097F85B
:205E40002E200A43D1B22A4AD1540FE097F82F30274AD35C5AB297F92E30DB435BB2134096
:205E60005AB297F82F30D1B2214AD1547B7D002B0CD097F82F301F4AD15C97F82F3097F815
:205E80002E200A43D1B21B4AD1540FE097F82F30184AD35C5AB297F92E30DB435BB2134074
:205EA0005AB297F82F30D1B2124AD154BA691249BB6841F82320FA691049BB689B000B44FE
:205EC0001A603A6A0E49BB689B000B441A607A6A0C49BB689B000B441A60BA6A0A49BB686C
:205EE0009B000B441A60002318463037BD4680BDBC4A0020B84A0020204B0020C04A002019
:205F0000F04A0020504B0020804B00200000000080B483B000AF0346FB71FB79064A4FF4AF
:205F2000D47101FB03F3134484331B7818460C37BD465DF8047B7047604C002080B483B027
:205F400000AF03460A46FB711346BB71FB79074A4FF4D47101FB03F313448433BA791A70FE
:205F600000BF0C37BD465DF8047B7047604C002080B584B000AF0346FB714FF00003FB605B
:205F8000FB79184600F04AF803467B817B89022B02D07B89042B37D1FB79032B0BD8FB7981
:205FA0000833DBB218464CF0C5FD07EE900AF8EEE77AC7ED037AD7ED037A9FED157AF4EE78
:205FC000C77AF1EE10FA0ADDFB79124A4FF4D47101FB03F31344843300221A7013E0D7EDF5
:205FE000037A9FED0D7AF4EEC77AF1EE10FA00D409E0FB79074A4FF4D47101FB03F31344B2
:20600000843301221A7000BF1037BD4680BD00BF00007A44604C00200000FA4380B483B0E9
:2060200000AF0346FB71FB79124A4FF4D47101FB03F313441B88072B08D9FB790D4A4FF497
:20604000D47101FB03F3134403221A80FB79032B01D9FF2307E0FB79064A4FF4D47101FB26
:2060600003F313441B8818460C37BD465DF8047B704700BF604C002080B582B000AF034617
:20608000FB71FB791D4A4FF4D47101FB03F313441B88062B2ED801A252F823F0B9600808E5
:2060A000C5600808D1600808D1600808D1600808DD600808E9600808FB79002118464DF012
:2060C00073F817E0FB79012118464DF06DF811E0FB79022118464DF067F80BE0FB790321C3
:2060E00018464DF061F805E0FB79042118464DF05BF800BF00BF0837BD4680BD604C002077
:2061000090B583B000AF0023FB7156E2FB79C64A4FF4D47101FB03F3134438334FF0000290
:206120001A60FB79C04A4FF4D47101FB03F313443433BE4A1A60FB79BB4A4FF4D47101FBB0
:2061400003F3134430334FF07E521A60FB79B64A4FF4D47101FB03F31344163305221A80B7
:20616000FB79B14A4FF4D47101FB03F313441A3302221A80FB79AC4A4FF4D47101FB03F3F0
:20618000134450334FF000021A60FB79A64A4FF4D47101FB03F313444C33A44A1A60FB79DA
:2061A000A14A4FF4D47101FB03F3134444334FF000021A60FB799C4A4FF4D47101FB03F31D
:2061C0001344183303221A80FB79974A4FF4D47101FB03F31344583303221A80FB79924A9E
:2061E0004FF4D47101FB03F313444033904A1A60FB798D4A4FF4D47101FB03F313443C337C
:206200008C4A1A60FB79884A4FF4D47101FB03F313441C3301221A80FB79834A4FF4D47142
:2062200001FB03F3134448334FF000021A60FB797D4A4FF4D47101FB03F3134454334FF00D
:2062400000021A60FB79784A4FF4D47101FB03F31344103300221A70FB79734A4FF4D47113
:2062600001FB03F313440F3300221A70FB796E4A4FF4D47101FB03F31344113300221A70FA
:20628000FB79694A4FF4D47101FB03F313440D3300221A70FB79644A4FF4D47101FB03F37E
:2062A00013440E3300221A70FB795F4A4FF4D47101FB03F313440C3300221A70FB795A4AA9
:2062C0004FF4D47101FB03F31344D8334FF000021A60FC7951F0C4FC024653494FF4D47343
:2062E00004FB03F30B4403F590731A60FC7951F0B7FC02464C494FF4D47304FB03F30B44D1
:2063000003F58E731A60FB79474A4FF4D47101FB03F31344D4334FF000021A60FB79424A72
:206320004FF4D47101FB03F31344D0333F4A1A60FB793D4A4FF4D47101FB03F31344C833BF
:206340003A4A1A60FB79384A4FF4D47101FB03F31344CC334FF000021A60FB79324A4FF48B
:20636000D47101FB03F31344B43300221A80FB792D4A4FF4D47101FB03F3134403F5927333
:2063800000221A80FB79284A4FF4D47101FB03F31344AF3300221A70FB79234A4FF4D47193
:2063A00001FB03F31344AE3300221A70FB791E4A4FF4D47101FB03F31344AD3300221A70CE
:2063C000FB79194A4FF4D47101FB03F31344B23300221A70FB79144A4FF4D47101FB03F338
:2063E0001344B33300221A70FB790F4A4FF4D47101FB03F3134403221A80FB790A4A4FF44C
:20640000D47101FB03F31344023303221A80FB79054A4FF4D47101FB03F313448933002288
:206420001A70FB7908E000BF604C00200000C84200005C42000034C2644A4FF4D47101FB1B
:2064400003F31344993300221A70FB795F4A4FF4D47101FB03F31344933300221A70FB79A3
:206460005A4A4FF4D47101FB03F31344923300221A70FB79554A4FF4D47101FB03F3134452
:206480008D3300221A70FB79504A4FF4D47101FB03F313448E3300221A70FB794B4A4FF4F8
:2064A000D47101FB03F313448F3300221A70FB79464A4FF4D47101FB03F313449E33052213
:2064C0001A80FB79414A4FF4D47101FB03F3134403F5C27300221A80FB793C4A4FF4D471E7
:2064E00001FB03F3134403F5C37300221A80FB79364A4FF4D47101FB03F3134403F5C17378
:2065000000221A80FB79314A4FF4D47101FB03F3134403F5BD7300221A70FB792B4A4FF4FF
:20652000D47101FB03F3134403F27B1300221A70FB79264A4FF4D47101FB03F3134403F5F1
:20654000BE7300221A70FB79204A4FF4D47101FB03F3134403F5CA7300221A70FB791B4AF5
:206560004FF4D47101FB03F3134403F2951300221A70FB79154A4FF4D47101FB03F313445D
:2065800003F5CB7300221A70FB79104A4FF4D47101FB03F3134403F2971300221A70FB79BB
:2065A0000A4A4FF4D47101FB03F3134403F27D13FF221A70FB790133FB71FB79032B7FF65B
:2065C000A5AD00BF00BF0C37BD4690BD604C0020B0B582B000AF49F093FD42F08FFF034674
:2065E000002B01D0FFF78CFD0023FB716BE3FB796D4A4FF4D47101FB03F313446C334FF069
:206600007E521A60FB79684A4FF4D47101FB03F313447033654A1A60FB79634A4FF4D471C4
:2066200001FB03F313447433614A1A60FB795E4A4FF4D47101FB03F3134478335D4A1A608C
:20664000FB79594A4FF4D47101FB03F313447C33594A1A60FB79544A4FF4D47101FB03F3FA
:206660001344843300221A70FB794F4A4FF4D47101FB03F31344123300221A70FB794A4A89
:206680004FF4D47101FB03F31344133300221A70FB79454A4FF4D47101FB03F313440B3325
:2066A00000221A70FB79404A4FF4D47101FB03F31344093300221A70FB793B4A4FF4D471F6
:2066C00001FB03F313440A3300221A70FB79364A4FF4D47101FB03F31344853300221A705F
:2066E000FB79314A4FF4D47101FB03F31344143300221A80FB792C4A4FF4D47101FB03F373
:20670000134424332D4A1A60FB79274A4FF4D47101FB03F313442033294A1A60FB79224A04
:206720004FF4D47101FB03F31344803300221A70FB791D4A4FF4D47101FB03F313448233C8
:2067400000221A80FB79184A4FF4D47101FB03F3134403F160014FF000024FF00003C1E954
:206760000023FB79104A4FF4D47101FB03F31344683300221A70FB790B4A4FF4D47101FBC3
:2067800003F313441833B3F90020FB7990B2064A4FF4D47101FB03F31344583302461A8051
:2067A0000023BB7120E000BF604C0020000020410000C84200007A4400401C46177617721E
:2067C000177617F2FD79BC7951F04AFA0246AB496A2305FB03F3234448339B000B4408332D
:2067E0001A60BB790133BB71BB790F2BEAD9FB79A24A4FF4D47101FB03F31344B8334FF0FF
:2068000000021A60FB799D4A4FF4D47101FB03F31344BC334FF000021A60FB79974A4FF48E
:20682000D47101FB03F31344C033954A1A60FB79924A4FF4D47101FB03F31344C433914A8B
:206840001A60FB798D4A4FF4D47101FB03F31344B433B3F90020FB7990B2884A4FF4D471DF
:2068600001FB03F3134403F5927302461A80FB79824A4FF4D47101FB03F313448933002201
:206880001A70FB797D4A4FF4D47101FB03F313448C3300221A70FB79784A4FF4D47101FB3D
:2068A00003F313448B3300221A70FB79734A4FF4D47101FB03F313448A3300221A70FB7942
:2068C0006E4A4FF4D47101FB03F31344963300221A70FB79694A4FF4D47101FB03F31344C2
:2068E000953300221A70FB79644A4FF4D47101FB03F31344983300221A70FB795F4A4FF45A
:20690000D47101FB03F31344973300221A70FB795A4A4FF4D47101FB03F3134494330022A1
