:020000040800F2
:1000000000BC0020CD03000861C7030825C6030813
:100010005DC703081DC60308EDCB03080000000000
:100020000000000000000000000000005DC80308A0
:1000300021C603080000000059C80308B5C803081A
:10004000FB030008FB030008FB030008FB03000898
:10005000FB030008FB030008FB030008FB03000888
:10006000FB030008FB030008FB030008FB03000878
:10007000FB030008FB030008FB030008FB03000868
:10008000FB030008FB030008FB030008FB03000858
:10009000FB030008FB030008FB030008FB03000848
:1000A000FB030008FB030008FB030008FB03000838
:1000B000FB030008FB030008FB030008FB03000828
:1000C000FB030008FB030008FB030008FB03000818
:1000D000FB030008FB030008FB030008FB03000808
:1000E000FB030008FB030008FB030008FB030008F8
:1000F000FB030008FB030008FB030008FB030008E8
:10010000FB030008FB030008FB030008FB030008D7
:10011000FB030008FB030008FB030008FB030008C7
:10012000FB030008FB030008FB030008FB030008B7
:10013000FB030008FB030008FB030008FB030008A7
:10014000FB030008FB030008FB030008FB03000897
:10015000FB030008FB030008FB030008FB03000887
:10016000FB030008FB030008FB030008FB03000877
:10017000FB030008FB030008FB030008000000006D
:10018000FB030008FB030008D5CA0308FB030008B3
:10019000FB030008FB030008FB030008FB03000847
:1001A000FB030008FB030008FB030008FB03000837
:1001B000FB030008FB030008FB030008FB03000827
:1001C000FB030008FB030008FB030008FB03000817
:1003C0000000000000000000000000004FF000509E
:1003D00000F500214FF00002E0E802228842FBD144
:1003E0000648804706480047FEE7FEE7FEE7FEE7CF
:1003F000FEE7FEE7FEE7FEE7FEE7FEE7D9C90308F2
:100400006505000880B59CB01A9019911A9820B122
:10041000FFE71998212804D3FFE74FF0FF301B9026
:1004200034E011A8069000F045F841F61B70C0F6C4
:100430000000059041F000FB059A03460698EC4643
:100440002021CCF8041009A9CCF80010102100F0EC
:10045000B7FA0890089820B1FFE76FF001001B90F1
:1004600014E01A98199A09A9039140F0DFFF11A826
:10047000002104912022029241F02EF8029A049960
:10048000039841F029F804981B90FFE71B981CB0D3
:1004900080BD000084B0039002910192009300207F
:1004A00004B070477047000081B00090002001B098
:1004B0007047000080B582B00190019841F6B021EC
:1004C000C0F60001102240F0B1FF002002B080BD54
:1004D00080B582B00190019841F6C021C0F60001BC
:1004E0004FF4807240F0A2FF41F62C71C0F600017B
:1004F000042041F029FC012002B080BD87B00690A5
:1005000005918DF81320002001904FF0FF300090EE
:1005100006980390FFE70198059988421FD2FFE7EC
:10052000039800788DF80B00039840788DF80A0046
:100530009DF80B009DF81310884203D1FFE7019846
:1005400000900CE09DF80A000399084402300390E3
:100550009DF80A000199084402300190DBE70098F9
:1005600007B0704780B5ADF5707D47F60040C2F228
:10057000000005900598EF90EF9880F30A884EF6FA
:100580000851CEF200014FF0006008603CF08CFB97
:1005900000F0C2F900F0A6F949A8002104914FF437
:1005A000187240F099FF04984A9000F00BFC02206A
:1005B00001210DF2B73200F02BFFEE90EE980130E2
:1005C00020B1FFE7EE98023038B9FFE740F298110A
:1005D000C2F20001052008600CE0EE98002808D463
:1005E000FFE79DF8B70340F29811C2F200010860DE
:1005F000FFE7FFE749A83EF05BF842F031F841F62B
:10060000AD61C0F60001012041F09EFB3EF074FE9A
:10061000EE90EE9860B1FFE7EE9A41F68661C0F683
:100620000001022041F090FB49A840F015FDFFE7D2
:1006300049A809A93EF020F840F0EEFF4B98020AC5
:10064000C3B241F6BB61C0F600010120039041F046
:100650007BFB9DF8240145F0B7FA0246039841F66A
:100660009E61C0F6000141F06FFB03984A904C98E0
:10067000032817D0FFE7E1A83EF03AF8EE90EE9895
:1006800078B1FFE7EE9A41F66861C0F600010220FA
:1006900041F05AFB6FF0FD004A9049A840F0DCFCA5
:1006A000FFE7FFE740F038FD40F26400C2F20000CF
:1006B000006820B9FFE749A841F048FCFFE740F097
:1006C0002BFD02204A90E398089044F04DFA4C9894
:1006D000022817D1FFE749A80290383009A94FF442
:1006E000807240F0A3FE0298089941F087FB0298BF
:1006F000089940F29002C2F20002126806AB41F083
:10070000DFFB2BE04C98032818D1FFE749A80190A4
:10071000383009A94FF4807240F088FE019841F208
:100720000021C0F206010891089940F29002C2F23D
:100730000002126806AB41F0C3FB0EE04C9A41F692
:100740005161C0F60001022041F0FEFA6FF0FB009B
:100750004A9049A840F080FCFFE7FFE7EE980DF5CE
:10076000707D80BD80B594B01390129111920120DC
:10077000029001904FF4E0200CA910223EF01AFEE6
:100780000490049818B1FFE701200390A6E01399A4
:1007900068460CAA02600020102300F031FD04908E
:1007A000049818B1FFE74020039097E00CA8109040
:1007B0001098406807901098806842F25071C1F616
:1007C0003411884203D0FFE700200290FFE74FF486
:1007D000E22008A910223EF0EDFD0490049818B123
:1007E000FFE70120039079E01399684608AA0260A8
:1007F0000020102300F004FD0490049818B1FFE7D6
:10080000402003906AE008A8109010984068069075
:100810001098806842F25071C1F63411884203D0BA
:10082000FFE700200190FFE7029830B9FFE7019849
:1008300018B9FFE70820039050E0029838B9FFE7A5
:100840000198012803D1FFE7002005902BE00298D2
:10085000012806D1FFE7019818B9FFE701200590AC
:1008600020E00798013018B9FFE700200790FFE764
:100870000698013018B9FFE700200690FFE70798B7
:1008800006990131884206D0FFE7079806990231A0
:10089000884203D1FFE70120059002E00020059087
:1008A000FFE7FFE7FFE7FFE7059850B1FFE7129882
:1008B0000CA9102240F0BAFD11994FF4E020086015
:1008C00009E0129808A9102240F0B0FD11994FF4E8
:1008D000E2200860FFE700200390FFE7039814B0D0
:1008E00080BD000080B584B040F20001C2F200017A
:1008F000029141F65070C0F60000019040F20400F1
:10090000C2F20000401A009002980199009A40F04B
:100910008DFD04B080BD000080B582B040F20400BF
:10092000C2F20000019047F60040C2F200000090C1
:10093000019800990A1A002140F0CEFD02B080BD56
:1009400084B003900291002000900190FFE701988D
:10095000029988420DD2FFE703980199405C18B1D3
:10096000FFE70120009004E0FFE7019801300190CB
:10097000EDE7009804B0704784B08DF80F000920AF
:100980000290002000900190FFE7019802998842B0
:1009900013D2FFE79DF80F00019A41F64471C0F6AB
:1009A0000001895C884203D1FFE70120009004E048
:1009B000FFE7019801300190E7E7009804B0704725
:1009C000B0B59CB0DDF884C0DDF880C01A901991F4
:1009D000189217930AA807900021342240F07CFD5A
:1009E0001A9804901998059041F60C70C0F6000012
:1009F000069041F021F80499059A069B84460798D1
:100A0000189C179DEE46CEF80850CEF80440CEF85C
:100A100000C000F04BF90990099820B1FFE74FF0B2
:100A2000FF30089012E02099219A0AA800F0ECF813
:100A30000990099820B1FFE76FF00100089005E0E8
:100A40000AA800F015F800201B900EE00AA800F09C
:100A50000FF8089A099B41F6CF61C0F60001022009
:100A600041F072F908981B90FFE71B981CB0B0BDCD
:100A700080B582B001900198006850B1FFE70199FC
:100A80000868496820F048F90198006815F000F9F5
:100A9000FFE70198806850B1FFE701998868C9684D
:100AA00020F03AF90198806815F0F2F8FFE7019814
:100AB0000021342240F010FD02B080BD80B5B2B0FC
:100AC000309020208DF8BF0000200290309890F8E0
:100AD0003100FF2804D1FFE74FF0FF30319090E064
:100AE000309991F83100013081F8310030990020BF
:100AF00081F8300004A840F05FF9309890F8310098
:100B000001280DD1FFE7309880689DF8BF10084498
:100B100001903098C0689DF8BF10401A009006E020
:100B20003098806801909DF8BF000090FFE73098F2
:100B30000168426804A840F049F90390039820B185
:100B4000FFE76FF00100029048E00199009A04A8C5
:100B500040F0E0F90390039820B1FFE76FF0020046
:100B600002903BE0309881689DF8BF2004A840F0D7
:100B7000D7F80390039820B1FFE76FF003000290CD
:100B80002CE030980168426804A840F01FF90390F7
:100B9000039820B1FFE76FF0040002901EE0309848
:100BA0008168C26804A840F0B5F90390039820B1A9
:100BB000FFE76FF00500029010E0309800F110019F
:100BC0009DF8BF2004A840F0ABF80390039820B133
:100BD000FFE76FF00600029000E0FFE704A840F096
:100BE00091F8029850B1FFE7029A039B41F6E96140
:100BF000C0F60001022041F0A7F8FFE7029831900B
:100C0000FFE7319832B080BD80B588B0069005917D
:100C1000049220208DF80F00FFE7049800283ED0B2
:100C2000FFE79DF80F00069991F83010401A8DF8F3
:100C300007009DF8070058B9FFE70698FFF73EFF49
:100C40000290029818B1FFE7029807902AE0E4E7C3
:100C50009DF807000499884204D9FFE704988DF8AD
:100C60000700FFE70598069991F8302011441031EC
:100C70009DF8072040F0DAFB9DF80710059808441E
:100C800005909DF807100498401A04909DF80720DD
:100C9000069991F83000104481F83000BDE700203B
:100CA0000790FFE7079808B080BD000080B58AB0C4
:100CB000DDF838C0DDF834C0DDF830C008900791A9
:100CC0000692059320208DF813009DF813000C99CF
:100CD00008440E99084403900020019006990120D1
:100CE0000FF0FAFB089908600898006820B9FFE740
:100CF0004FF0FF3001905FE006980899486008982F
:100D000000680799069A40F091FB0C9A0E9811180A
:100D10000120914200900CD3FFE70C980E990844F3
:100D20009DF8132081180020914238BF01200090C7
:100D3000FFE7009800F001000290029820B1FFE761
:100D40006FF00100019037E0039901200FF0C4FB20
:100D5000089988600898806820B9FFE76FF0020062
:100D6000019029E003980899C8600E9850B1FFE7F8
:100D7000089880689DF8131008440D990E9A40F069
:100D800055FBFFE70C9860B1FFE7089880689DF875
:100D9000131008440E99084405990C9A40F046FB3C
:100DA000FFE70899002081F831009DF81310089A98
:100DB00082F83010099002E001980990FFE7099845
:100DC0000AB080BD80B582B041F22500C0F60400B3
:100DD00041F27901C0F604011FF052FF41F249606F
:100DE000C0F604001FF076FF41F2B150C0F60400D7
:100DF0001FF064FF002001901FF078FF41F24510C2
:100E0000C0F604001FF04EFF0199012040F006FCDF
:100E10000199084640F002FC7F2015F0F9FE13F01E
:100E2000DDFC019811F03EFB40F6045044F064FCF8
:100E30003CF0F6FF40F6035044F05EFCFFE74FF451
:100E4000803042F031FF08B1FFE7F8E702B080BD23
:100E500080B584B08DF80F008DF80E1002929DF8C9
:100E60000F109DF80E2041F6C030C0F6000040F093
:100E70009FFB00200190FFE701989DF80E1088422B
:100E800020DAFFE701989DF80E10013988420AD157
:100E9000FFE702980199415C48F6D400C0F60400CF
:100EA00040F086FB09E002980199415C41F64B60F5
:100EB000C0F6000040F07CFBFFE7FFE7019801303F
:100EC0000190D9E748F27450C0F6040040F070FB7E
:100ED00004B080BD80B588B00690059100200390D5
:100EE0000698012804D1FFE706208DF8130003E0DF
:100EF00007208DF81300FFE79DF81300042103AAD3
:100F000000F086FA02900298013030B1FFE70298B3
:100F100018B1FFE70298079024E00298013018B951
:100F2000FFE700200390FFE70398020EC0F307439A
:100F300080B26946086041F62B51C0F600010420DA
:100F400040F002FF05980399884203D8FFE700208C
:100F5000079007E09DF81300042105AA00F074FB38
:100F60000790FFE7079808B080BD000080B584B007
:100F70000290029820B9FFE74FF0FF30039010E095
:100F800002994FF4C02030223EF0BEF90190019842
:100F900020B1FFE76FF00100039002E00020039012
:100FA000FFE7039804B080BD80B58EB002A8FFF7BC
:100FB000DDFF9DF82B008DF80700BDF82A008DF8A5
:100FC00006000A98ADF802009DF82F008DF8050084
:100FD000BDF82E008DF804000B98ADF8000041F626
:100FE0009C40C0F6000040F0E3FA029941F67550CB
:100FF000C0F6000040F0DCFA039941F61B60C0F631
:10100000000040F0D5FA059941F6FF50C0F6000007
:1010100040F0CEFA069941F6BA50C0F6000040F012
:10102000C7FA079941F6D250C0F6000040F0C0FA66
:10103000089941F6EA50C0F6000040F0B9FA099963
:1010400041F63460C0F6000040F0B2FA9DF8071097
:101050009DF80620BDF8023041F6E940C0F60000D8
:1010600040F0A6FA9DF805109DF80420BDF8003068
:1010700041F60950C0F6000040F09AFA0C9941F68A
:101080008650C0F6000040F093FA0D9941F69F504B
:10109000C0F6000040F08CFA0EB080BD80B592B072
:1010A000002006900AA81021FFF7ACF903900398DE
:1010B00018B1FFE70220029092E00AA80EA909AA3F
:1010C000FFF750FB0290029808B1FFE788E00E9806
:1010D000B0F5805F04D8FFE70E980F2803D8FFE72C
:1010E000042002907CE0109842F25071C1F6341155
:1010F000884203D0FFE70820029071E09DF8380095
:10110000000730B1FFE70E9820F00F001030089074
:1011100002E00E980890FFE7089801210FF0DCF933
:101120000690069818B9FFE78020029058E00998C9
:101130000699089A3EF03EF90390039818B1FFE72C
:10114000012002904CE0069A089B6846026000204D
:101150000AA900F055F80390039818B1FFE7402062
:1011600002903DE006980E993BF0A0FD18B1FFE714
:101170001020029034E00698103005900E98103838
:101180000790FFE7079810B3FFE7059800788DF800
:101190001300059840788DF812009DF81300FF2881
:1011A00005D0FFE79DF81200112803DBFFE72020A0
:1011B000029015E09DF81200059908440230059050
:1011C0009DF812100798401A02380790DAE707983E
:1011D00018B1FFE72020029002E000200290FFE714
:1011E0000AA80021102240F077F9069820B1FFE705
:1011F000069814F04DFDFFE7029812B080BD000084
:1012000080B598B0DDF868C08DF85B001591149238
:10121000139380200590002004909DF84C00000757
:1012200018B9FFE7139820B9FFE74FF0FF30179088
:1012300049E00AA80DF02CFB9DF85B00012806D1BF
:10124000FFE71599059A0AA80DF03EFB05E01599F0
:10125000059A0AA80DF026FBFFE79DF85B10149A8B
:101260001A9B0AA80DF08CFA0490049808B1FFE7C5
:1012700023E014981030149013981038139013989A
:10128000D0B1FFE706A803905A21102240F024F9BC
:10129000039B1A9810301A909DF85B10139A1498BB
:1012A000DDF868E0EC46CCF804E0CCF800000AA8D1
:1012B0000DF008F90490FFE7FFE70AA80DF0DAFA4D
:1012C00004981790FFE7179818B080BD80B590B0CC
:1012D0000F90002003900F9848B1FFE74FF4E020F3
:1012E0000D9041F67E40C0F60000029008E04FF4F9
:1012F000E2200D9041F68D40C0F600000290FFE71D
:1013000008A81021FFF77EF80190019808B1FFE7C7
:101310006BE00D9804A910223EF04CF80190019862
:1013200008B1FFE759E0684604AA0260002008A956
:101330001023FFF765FF0190019808B1FFE74CE02B
:1013400004A80E900E980068B0F5805F09D8FFE7FA
:101350000E98806842F25071C1F63411884204D070
:10136000FFE76FF0FE00019037E00E98007800076D
:1013700038B1FFE70E98006820F00F0010300C9095
:1013800003E00E9800680C90FFE70C9801210FF025
:10139000A3F80390039808B9FFE71EE00D9803999E
:1013A0000C9A3EF007F80190019808B1FFE714E0AD
:1013B000039A0C9B68460260002008A9FFF720FFF3
:1013C0000190019808B1FFE707E00299039A0E988F
:1013D0000368012040F096F8FFE7039820B1FFE78B
:1013E000039814F055FCFFE7FFE708A8002110223E
:1013F00040F072F8019848B1FFE7019A41F6484180
:10140000C0F60001032040F09FFCFFE710B080BD54
:1014100080B594B08DF84B008DF84A1011920020E1
:10142000069009A81021FEF7EDFF0290029808B17E
:10143000FFE798E009A80DA908AAFFF793F9029021
:10144000029808B1FFE780E00D98B0F5805F03D9FE
:10145000FFE70420029078E00F9842F25071C1F645
:101460003411884203D0FFE7082002906DE09DF818
:101470003400000730B1FFE70D9820F00F00103066
:10148000079002E00D980790FFE7079801210FF001
:1014900023F80690069808B9FFE756E008980699E1
:1014A000079A3DF087FF0290029808B1FFE74CE0F1
:1014B000069A079B68460260002009A9FFF7A0FE74
:1014C0000290029808B1FFE73FE0069810300D99AE
:1014D00010399DF84B20FFF711F80390039800286E
:1014E0001ED4FFE70698039908441030059005982C
:1014F00040789DF84A10884208DDFFE71198059969
:1015000002319DF84A203FF091FF06E01198059ABC
:10151000911C52783FF08AFFFFE70020019009E01C
:101520004FF0FF30019011989DF84A20FF213FF0C5
:10153000D3FFFFE709A8002110223FF0CDFF069856
:1015400014F0A6FB0198139021E0069820B1FFE764
:10155000069814F09DFBFFE711989DF84A20FF21A3
:101560003FF0BAFFFFE709A8002110223FF0B4FFC7
:101570006FF001000190019A029B41F60C41C0F608
:101580000001032040F0E0FB01981390FFE713985F
:1015900014B080BD80B58CB00020029004A810214A
:1015A000FEF730FF0390039818B1FFE70220029086
:1015B00047E0102308930020099042F25070C1F6D2
:1015C00034100A9008980A9948400B90684608AA77
:1015D0000260012004A9FFF713FE0390039818B1DD
:1015E000FFE7402002902CE04FF4E0204FF4005140
:1015F0003DF004FE0390039818B1FFE7012002902C
:101600001FE04FF4E02008A910223DF07BFF03907B
:10161000039818B1FFE70120029012E04FF4E22096
:1016200008A910223DF06EFF0390039818B1FFE760
:101630000120029005E004A8002110223FF04CFF99
:10164000FFE702980CB080BD80B596B08DF85700CA
:101650008DF856101492002005909DF85600102821
:1016600004DCFFE79DF8560020B9FFE74FF48070D7
:10167000019035E10BA81021FEF7C4FE02900298FC
:1016800018B1FFE7022001902AE10BA810A90AAACD
:10169000FFF768F80190019808B1FFE718E110988A
:1016A000B0F5805F03D9FFE70420019010E11298A4
:1016B00042F25071C1F63411884203D0FFE708208E
:1016C000019005E19DF84000000730B1FFE7109858
:1016D00020F00F001030089002E010980890FFE70B
:1016E00010989DF856100844023007909DF81C0091
:1016F000000730B1FFE7079820F00F001030079087
:10170000FFE7079801210EF0E7FE0590059818B94C
:10171000FFE780200190DBE00A980599089A3DF0E8
:1017200049FE0290029818B1FFE701200190CFE036
:10173000059A089B6846026000200BA9FFF760FD30
:101740000290029818B1FFE740200190C0E0059890
:101750001030109910399DF85720FEF7CFFE0390F6
:10176000039800281AD4FFE7059803990844407CA1
:10177000069006989DF8561088420BD1FFE7059811
:10178000039908441230049004981499069A3FF083
:101790004DFE02E0202001909AE037E010989DF87D
:1017A000561008440230B0F5805F03D9FFE70420EB
:1017B00001908DE005981099084404909DF8570019
:1017C00004994A1C049208709DF8560004994A1C1A
:1017D00004920870049814999DF856203FF026FE54
:1017E0009DF8561004980844049004980799059AA7
:1017F000121A0A44FF213FF06FFE9DF8560010991F
:1018000008440230109007980890FFE705980F9061
:1018100010980F9908601198023020B9FFE70F99CE
:101820000020486004E0119801300F994860FFE7FC
:101830000F990020C86005980F9909683BF036FAA7
:101840000F99C860059A089B6846026001200BA9A1
:10185000FFF7D6FC0290029818B1FFE740200190F4
:1018600036E00A98B0F5E02F04D1FFE74FF4E2200C
:10187000099003E04FF4E0200990FFE709984FF446
:1018800080513DF0BBFC0290029818B1FFE70120A7
:1018900001901DE00998103005991031089A103A0E
:1018A0003DF030FE0290029818B1FFE70120019050
:1018B0000EE00998059910223DF024FE029002984E
:1018C00018B1FFE70120019002E000200190FFE73E
:1018D000059820B1FFE7059814F0DAF9FFE7FFE774
:1018E0000BA8002110223FF0F7FD019850B1FFE74F
:1018F000019A029B41F62A41C0F60001032040F004
:1019000023FAFFE7019816B080BD000080B594B0BF
:1019100000200D90079008A81021FEF773FD02909B
:10192000029808B1FFE7B0E008A810A90FAAFEF7D7
:1019300019FF0290029808B1FFE79EE01098B0F5F9
:10194000805F08D8FFE7129842F25071C1F6341157
:10195000884204D0FFE76FF0FE0002908DE00F9800
:10196000B0F5E02F06D1FFE741F64550C0F6000084
:10197000039005E041F65D50C0F600000390FFE7DC
:10198000039941F6BF40C0F600003FF011FE109AE7
:1019900041F6DA30C0F6000011463FF009FE119919
:1019A00041F6F530C0F600003FF002FE139941F613
:1019B000C730C0F600003FF0FBFD9DF84000000777
:1019C00030B1FFE7109820F00F0010300E9002E0C9
:1019D00010980E90FFE70E9801210EF07DFD079004
:1019E000079808B9FFE748E00F9807990E9A3DF06D
:1019F000E1FC0290029808B1FFE73EE0079A0E9BD7
:101A000068460260002008A9FFF7FAFB02900298DE
:101A100008B1FFE731E041F6E140C0F600003FF0D9
:101A2000C7FD079810300690109810380C90FFE70B
:101A30000D980C9988421FD2FFE7069800788DF820
:101A40001700069840788DF816000698023004902A
:101A50009DF817009DF81610049AFFF7F9F99DF804
:101A6000160006990844023006909DF816000D995C
:101A7000084402300D90DBE7FFE7079820B1FFE74D
:101A8000079814F005F9FFE7FFE708A800211022E6
:101A90003FF022FD029848B1FFE7029A41F6634108
:101AA000C0F60001032040F04FF9FFE714B080BDFD
:101AB000112233445566778899AABBCCDDEEFF002E
:101AC0009C3A6081CC9CCE9EEE8D61474E8E48EF55
:101AD00048A242525641278D8E16B2BA3717618FEF
:101AE0009C99156E8F1F74D71F5DC209F136326342
:101AF00031540C209395F2B1D2EEF90CEE3B598B98
:101B00005D480F8CD22C310221D67FB43197C63F6D
:101B100011A7086229EB4620AF84D5F3A7A231EDC7
:101B2000AFFDF4C603F9F68553CA2971F2819B7E95
:101B3000FCFA2F176BCB18AD274D93B9755B5CF290
:101B40000781D2F499FF22FD0248A55DB97BF10B14
:101B5000FE048CBF50C4883F687187C9AA21D4484D
:101B6000209966DE3658347721F2AD9A0F5DF04544
:101B70006BAD805D91C103B48B0DD1DA6B015690D2
:101B8000AB69261384421B84FE53542F47395A9065
:101B9000D91224DCC5C97AF2475D1094851EFC4B2E
:101BA000E2D2A5328BCF58FE427B31321D87098F9E
:101BB00028D7170DF334C2FBB1485B9BFE41261DAD
:101BC00025640925640900436865636B73756D3A84
:101BD000203078257809090D0A00546F74616C2053
:101BE0004C656E6774683A20307825782028256423
:101BF00029090D0A0041637469766520436F756E8B
:101C00007465723A20302578090D0A0053746174A6
:101C1000757320676574206661696C656428307827
:101C200025782C2564292E0D0A0053746174757370
:101C300020736574206661696C6564283078257846
:101C40002C2564292E0D0A00537461747573206469
:101C5000756D70206572726F722830782578292E24
:101C60000D0A005374617475732073686F77206573
:101C700072726F722830782578292E0D0A005374FD
:101C8000617475732050494E473A0D0A00537461D0
:101C900074757320504F4E473A0D0A003D3D3D3D4F
:101CA0003D3D3D3D3D3D3D3D3D3D3D3D3D3D3D3D64
:101CB0003D3D3D3D3D3D3D3D3D3D3D3D0D0A00250C
:101CC000733D3D3D3D3D3D3D3D3D3D3D3D3D3D3D0E
:101CD0003D3D3D3D3D3D3D3D3D3D3D3D3D3D0D0A97
:101CE0000054094C09560D0A004D424C20696E699A
:101CF0007469616C2076657273696F6E3A09256448
:101D00002E25642E25640D0A00496D6167652069E2
:101D10006E697469616C2076657273696F6E3A09D9
:101D200025642E25642E25640D0A006C6F63616C9A
:101D30002076657273696F6E3A2025642E25642EB5
:101D400025640D0A000D0A53797374656D20537470
:101D5000617475733A2050696E670D0A000D0A535D
:101D6000797374656D205374617475733A20506F84
:101D70006E670D0A004D616769633A09093078257D
:101D80003038780D0A0056657273696F6E204C6F9B
:101D9000636B65643A093078253038780D0A00465F
:101DA0006C61736820546F74616C2053697A653A72
:101DB000093078253038780D0A00496D6167653043
:101DC000204F66667365743A093078253038780D8F
:101DD0000A00496D61676531204F66667365743A24
:101DE000093078253038780D0A00535354204F6657
:101DF000667365743A093078253038780D0A0053D7
:101E0000797320537461747573204F6666736574BB
:101E10003A093078253038780D0A00537973205309
:101E20006574204F66667365743A093078253038DA
:101E3000780D0A004175646974204F666673657495
:101E40003A093078253038780D0A00253032782D5F
:101E50000042616420626F6F74206F7074696F6EEE
:101E6000282564292E0D0A00436865636B20737969
:101E70007320636F6E666967206572726F722825C2
:101E800064292E0D0A00496E697420666C617368BE
:101E9000206572726F72282564292E0D0A00526522
:101EA0007365742062792025732E0D0A0047494717
:101EB00041204445564943450D0A0049424C20768D
:101EC000657273696F6E2025642E25640D0A004BC0
:101ED000657920646572697665206572726F722813
:101EE00025642C2564290D0A00544C53313220708E
:101EF00072662067656E6572617465206572726FC7
:101F0000722825642C2564292E0D0A00726F6D5FDE
:101F10006B65795F646572697665006C61626C659A
:101F20005F7379735F7374617475730047657420B0
:101F3000524F54504B20666F726D20666C6173680F
:101F40002E0D0A0000010302050D0B0A130000000C
:101F500000C2EB0B000000000000000000000000C9
:020000040800F2
:1030000061260408B1150408296B0408491D040849
:10301000051604081D160408D9140408C913040869
:10302000391A04085D1A0408E16B0408E51B04085A
:10303000ADCC030875240408CD2204083923040804
:10304000152404086D200408000000000162040833
:10305000896204083D62040865610408815E040811
:103060001D5F0408095E0408CD600408D95E0408E9
:1030700011600408BD61040801260408797604087B
:10308000D52504087D250408D9F40308A1F2030816
:10309000F9F2030809F3030805F5030845F60308E8
:1030A000FDF10308B5FB030829F90308C9F7030874
:1030B000B9F903083DF90308E5FB030819110408F1
:1030C0000000000000000000000000000000000000
:1030D00000000000000000000000000000000000F0
:1030E00000000000000000000000000000000000E0
:1030F00000000000000000000000000000000000D0
:1038000087B006900591049206980390059802905F
:1038100000208DF807000090FFE700980499884287
:1038200010D2FFE70398009A805C0299895C4140BE
:103830009DF8070008438DF80700FFE70098013066
:103840000090EAE79DF8070007B0704780B5ADF536
:10385000467DC490C391C292C193C29890F83F0034
:1038600010F0E00F06D1FFE7C19999A82BF0E0FB1B
:1038700018B9FFE70020C5909CE07FA8079099A9A0
:10388000059107F04DF80598079906F0ADFD0599EB
:1038900007987831069107F043F80698079906F0E3
:1038A000A3FDC19991A8202208923DF0BFFD089A7E
:1038B000C29989A83DF0BAFD089AC29800F120018A
:1038C0000AA83DF0B3FD03200990FFE7DDF824C00E
:1038D0000AA800EBCC01496850F83C3043F6B842E6
:1038E000C0F6030202EBCC00406852F83C20D21A2A
:1038F000884103D2FFE70020C5905BE0DDF824C0DB
:103900000AA901EBCC00406851F83C2043F6B843CB
:10391000C0F6030303EBCC01496853F83C30D21ADC
:10392000884101D2FFE70CE0099818B9FFE70020B1
:10393000C5903FE0FFE7FFE7FFE7099801380990EE
:10394000C4E748A8009021F037FA0098002121F040
:1039500079FA0098C2992022049221F049FB00983C
:10396000049AC19921F044FB0098C499C39A21F0AC
:103970003FFB009838A9019120F0FAFF009821F050
:103980000DFA01982BF0DAFC01991AA8029099AA75
:103990000AAB0AF025F9029912A803902BF0A6FCB5
:1039A0000398049A89A9FFF72BFFB0FA80F0400929
:1039B000C590FFE7C5980DF5467D80BD85B00490A4
:1039C00003919DF80C00ADF804000398000A0390E1
:1039D0009DF80C00ADF806000398000A03909DF8CE
:1039E0000C00ADF808000398000A03909DF80C0045
:1039F000ADF80A00049800F14801BDF80A0051F83A
:103A00002000BDF8082001EB8201D1F80014084421
:103A1000009000980499BDF8062001EB8201D1F8CE
:103A200048184840009000980499BDF8042001EB24
:103A30008201D1F8481C08440090009805B07047F6
:103A400080B582B0019040F27810C2F200000168A7
:103A50004AF26800C0F603008847FFE7FEE700006F
:103A600083B0029001910092019A02990868104473
:103A7000086002980368DDF804C000990878421CC9
:103A8000634538BF1046087003B0704785B0049096
:103A900003910292002000908DF80700FFE79DF847
:103AA000070001282AD8FFE7009A04990868104403
:103AB000086004980168009A0020914238BF0120F4
:103AC00000900398026804990868104408600498FC
:103AD0000268039803680098411C9A4238BF084660
:103AE0000090FFE79DF8070001308DF8070004986B
:103AF00004300490039804300390D0E7009A0299B0
:103B000008681044086005B07047000085B0049054
:103B10000391029203980299401A019000208DF8B7
:103B200003000499029A8020885401208DF8030034
:103B3000FFE79DF80300019988420ED2FFE7049940
:103B400002989DF80320024400208854FFE79DF866
:103B5000030001308DF80300EBE705B0704700006B
:103B600085B004900391029203980299401A019043
:103B700000208DF80300FFE79DF8030001998842BB
:103B80000ED2FFE701980499029A9DF803301A4477
:103B90008854FFE79DF8030001308DF80300EBE740
:103BA00005B0704785B00490039102920398029982
:103BB000401A019000208DF8030001208DF80300C9
:103BC000FFE79DF803000199884210D2FFE70499AE
:103BD00002989DF8032010440144002001F8010CD4
:103BE000FFE79DF8030001308DF80300E9E7019835
:103BF000049A0399114401F8010C05B070470000C4
:103C000084B003900291019201980090FFE7009820
:103C10000299884209D2FFE70399009A002088544C
:103C2000FFE7009801300090F1E704B07047000012
:103C300010B586B0DDF824C0DDF820C005900491F1
:103C40000392029305980499039A029BDDF820C021
:103C5000099CEE46CEF80440CEF800C00AF032FCD3
:103C600006B010BDB0B588B0DDF838C0DDF834C09E
:103C7000DDF830C0079006910592049307980699E5
:103C8000059A049BDDF830C00D9C0E9DEE46CEF8E3
:103C90000850CEF80440CEF800C00AF071FC08B01D
:103CA000B0BD0000B0B588B0DDF838C0DDF834C074
:103CB000DDF830C0079006910592049307980699A5
:103CC000059A049BDDF830C00D9C0E9DEE46CEF8A3
:103CD0000850CEF80440CEF800C00AF0FFFC08B04F
:103CE000B0BD000080B584B00390029101920093B2
:103CF00003980299019A009B0AF042FD04B080BD2E
:103D000010B586B0DDF824C0DDF820C00590049120
:103D10000392029305980499039A029BDDF820C050
:103D2000099CEE46CEF80440CEF800C00AF05AFDD9
:103D300006B010BD80B582B0012024210CF0CCFB70
:103D40000090009818B9FFE70020019005E0009866
:103D50000AF09EFD00980190FFE7019802B080BD37
:103D600080B582B0019001980AF084FD019811F0AD
:103D70008FFF02B080BD000080B584B00390029137
:103D8000019203980299019A0AF08CFD04B080BD5B
:103D900080B584B003900291019203980299019A30
:103DA0000AF092FD04B080BD81B0009000984142BD
:103DB0000843C01701B0704780B584B003900291EA
:103DC0000192009303980299019A009B0AF08EFDDC
:103DD00004B080BD80B582B001204FF484710CF036
:103DE0007BFB0090009818B9FFE70020019005E0E8
:103DF00000980AF0D5FD00980190FFE7019802B005
:103E000080BD000080B582B0019001980AF0B8FD35
:103E1000019811F03DFF02B080BD000080B584B074
:103E20000290019100929DF80000400730B1FFE739
:103E300049F60070CFF6FF70039008E002980199F0
:103E4000009AD2080AF0B8FD00200390FFE703981B
:103E500004B080BD80B584B0039002910192FFE769
:103E6000039898B1FFE7039840680199884209D107
:103E7000FFE7039880680299019A3DF0A5FA08B916
:103E8000FFE703E0039880690390E9E7039804B033
:103E900080BD000080B5ADF5187D96909591949207
:103EA000002008909498B0F5C07F04D9FFE76FF028
:103EB00037009790F2E02CA80290002103914FF474
:103EC000D0723DF009FB09A80AF0E2FC029810301C
:103ED00013909DF8530213994A1C13920870BDF871
:103EE000520213994A1C139208709498000A13996D
:103EF0004A1C13920870949813994A1C13920870E4
:103F00001398033013901399481C139030200870B5
:103F100013989599949A3DF089FA0398139A949B73
:103F20008021D1549499193105910790FFE70798A2
:103F30001F2808DCFFE7079818A90854FFE707982F
:103F400001300790F3E709A818A94FF480720AF02E
:103F5000BBFC089008B1FFE781E000200690FFE776
:103F600006982F284DDCFFE72CA8139014A80021F9
:103F700010223DF0B1FA05980490FFE7049878B359
:103F8000FFE700200790FFE707980F280CDCFFE70A
:103F90001398079A835C14A9885C58408854FFE7FB
:103FA000079801300790EFE71398103013900498AA
:103FB000102803D3FFE71020019002E0049801903D
:103FC000FFE701990498401A049009A8012114AB55
:103FD0001A460AF0D5FB089008B1FFE73FE0CDE7AD
:103FE000069920A8084414A910223DF01FFA9DF854
:103FF000B30001308DF8B300FFE70698103006904B
:10400000AEE709A820A94FF480720AF05DFC089081
:1040100008B1FFE723E020A8203012909698139073
:1040200000200690FFE706982F2817DCFFE7129B79
:1040300009A801211A460AF0A3FB089008B1FFE77E
:104040000DE01398129910223DF0F0F913981030FA
:104050001390FFE7069810300690E4E7FFE709A801
:104060000AF008FC2CA84FF4D0711CF055FE20A8D3
:1040700030211CF051FE18A820211CF04DFE14A880
:1040800010211CF049FE089828B1FFE796983021CE
:104090001CF042FEFFE708989790FFE797980DF510
:1040A000187D80BD10B586B0DDF824C0DDF820C0D5
:1040B000059004910392029305980499039A029B38
:1040C000DDF820C0099CEE46CEF80440CEF800C0D2
:1040D0000BF06EFF06B010BDB0B588B0DDF838C08B
:1040E000DDF834C0DDF830C00790069105920493E6
:1040F00007980699059A049BDDF830C00D9C0E9D2B
:10410000EE46CEF80850CEF80440CEF800C00BF0D2
:10411000D5FF08B0B0BD0000B0B588B0DDF838C03C
:10412000DDF834C0DDF830C00790069105920493A5
:1041300007980699059A049BDDF830C00D9C0E9DEA
:10414000EE46CEF80850CEF80440CEF800C00CF091
:1041500033F808B0B0BD000080B584B00390029180
:104160000192009303980299019A009B0CF08CF83D
:1041700004B080BD80B582B0012041F248010CF04E
:10418000ABF90090009818B9FFE70020019005E016
:1041900000980CF0CFF800980190FFE7019802B06A
:1041A00080BD000080B582B0019001980CF0B2F89B
:1041B000019811F06DFD02B080BD000080B588B09F
:1041C000079006910592069800680490059800688B
:1041D00003901120ADF80600FFE7BDF906000228A4
:1041E0001CDBFFE704980799BDF9062051F822105F
:1041F0004840049007980499FFF7E0FB0399484072
:104200000390049802900398049002980390FFE7AB
:10421000BDF806000138ADF80600DEE7049802900C
:1042200003980490029803900398079949684840BE
:1042300003900498079909684840049004980699E7
:10424000086003980599086008B080BD80B588B003
:1042500007900691059206980068049005980068FA
:1042600003900020ADF80600FFE7BDF906000F2817
:104270001CDCFFE704980799BDF9062051F82210CD
:104280004840049007980499FFF798FB0399484029
:104290000390049802900398049002980390FFE71B
:1042A000BDF806000130ADF80600DEE70498029084
:1042B000039804900298039003980799096C48406A
:1042C000039004980799496C484004900498069913
:1042D000086003980599086008B080BD80B584B077
:1042E00003900291019203980299019A0CF030F820
:1042F00004B080BD80B58AB00890079140F2740088
:10430000C2F20000C1680591006838B1FFE740F2D1
:104310007400C2F20000806818B9FFE7002009901D
:1043200001E10898079900FB01F0019002900898BC
:1043300058B1FFE7079840B1FFE701980899B0FB33
:10434000F1F00799884203D0FFE700200990EAE0E6
:10435000019810F1030F03D3FFE700200990E2E07A
:10436000FFE79DF80400800740B1FFE7019820F0C7
:1043700003000190019804300190FFE7FFE70598E2
:1043800058B1FFE7059840680199884201D3FFE7DB
:1043900003E0059880690590F1E7059818B9FFE7F3
:1043A00000200990BFE00598806820B1FFE7012058
:1043B000FFF746FBFFE7059840680199401A23285C
:1043C0003DD8FFE70599012088600598406928B12C
:1043D000FFE7059841698069886107E00598806971
:1043E00040F27401C2F20001C860FFE705988069DD
:1043F00028B1FFE70599486989694861FFE7059990
:10440000002048610599886140F27400C2F2000002
:10441000007CC00740B1FFE72AF028FD20B1FFE78C
:104420000120FFF70DFBFFE705982030039003986C
:10443000029A00213DF050F80398099073E0059826
:10444000019908442030049004980690059840682B
:104450000199401A20380699486006990020886022
:1044600005980699C860059800690699086106993B
:104470004AF65520CFF600700860069949F6661096
:10448000CEF61160C8610698006920B1FFE7069872
:104490000169C860FFE70598406906994861059879
:1044A0008069069988610698406920B1FFE70698FF
:1044B0004169886106E0069840F27401C2F2000189
:1044C000C860FFE70698806920B1FFE70698816918
:1044D0004861FFE7059901208860019805994860C7
:1044E0000698059908610599002048610599886139
:1044F00040F27400C2F20000007CC00740B1FFE748
:104500002AF0B4FC20B1FFE70120FFF799FAFFE79A
:104510000598203003900398029A00213CF0DCFFBC
:1045200003980990FFE709980AB080BD80B584B070
:1045300003900020019003980090039870B1FFE76A
:1045400040F27400C2F20000006838B1FFE740F2A8
:104550007400C2F20000806808B9FFE7EEE000983E
:1045600040F27401C2F20001096888420BD3FFE7F0
:10457000009840F27402C2F20002116852681144BD
:10458000884204D3FFE70120FFF75AFAFFE70098BB
:10459000203800900098029002982AF0ADFC20B1DB
:1045A000FFE70120FFF74CFAFFE702988068012837
:1045B00004D0FFE70120FFF743FAFFE7029900204C
:1045C00088600298C06818B3FFE70298C0688068E6
:1045D000F0B9FFE702994868C9684A68104420307A
:1045E00048600298C16800690861029801900298C9
:1045F000C06802900298006920B1FFE70298016943
:10460000C860FFE70198002120223CF065FFFFE72A
:1046100002980069002864D0FFE70298006980686A
:1046200000285ED1FFE702994A6808694068104493
:104630002030486002980069019002990869006979
:1046400008610298406920B9FFE702988069D8B1F3
:10465000FFE70298406928B1FFE702984169806945
:10466000886107E00298806940F27401C2F200019B
:10467000C860FFE70298806928B1FFE7029948699E
:1046800089694861FFE7FFE701984069029948613D
:1046900001988069029988610298406920B1FFE71A
:1046A00002984169886106E0029840F27401C2F202
:1046B0000001C860FFE70298806920B1FFE7029817
:1046C00081694861FFE70298006920B1FFE702981D
:1046D0000169C860FFE70198002120223CF0FCFE40
:1046E000FFE70198C8B9FFE740F27400C2F200008A
:1046F000C168029A9161C06840B1FFE7029840F238
:104700007401C2F20001C9684861FFE7029840F2F3
:104710007401C2F20001C860FFE740F27400C2F207
:104720000000007C8007002808D5FFE72AF09EFBE8
:1047300020B1FFE70120FFF783F9FFE704B080BD58
:1047400010B586B0DDF824C0DDF820C005900491D6
:104750000392029305980499039A029BDDF820C006
:10476000099CEE46CEF80440CEF800C00BF0D0FE17
:1047700006B010BDB0B588B0DDF838C0DDF834C083
:10478000DDF830C0079006910592049307980699CA
:10479000059A049BDDF830C00D9C0E9DEE46CEF8C8
:1047A0000850CEF80440CEF800C00BF037FF08B038
:1047B000B0BD0000B0B588B0DDF838C0DDF834C059
:1047C000DDF830C00790069105920493079806998A
:1047D000059A049BDDF830C00D9C0E9DEE46CEF888
:1047E0000850CEF80440CEF800C00BF095FF08B09A
:1047F000B0BD000080B584B0039002910192009397
:1048000003980299019A009B0BF0EEFF04B080BD63
:1048100080B582B001204FF48A710BF05DFE0090EC
:10482000009818B9FFE70020019005E000980CF00F
:10483000EBF800980190FFE7019802B080BD0000FE
:1048400080B582B0019001980CF0CEF8019811F07B
:104850001FFA02B080BD000080B585B004900391BE
:1048600002920498006803990968484001900498EE
:1048700040680399496848400090019B180E43F630
:10488000D841C0F60301085C0206C3F3074C43F6A7
:10489000D850C0F6030010F80CC042EA0C42C3F333
:1048A000072E43F6D86CC0F6030C1CF80EE042EA63
:1048B0000E225FFA83FE43F6D873C0F6030313F8A3
:1048C0000EE072440192009A4FEA126E10F80E0048
:1048D0000006C2F3074E1CF80EC040EA0C40C2F3BB
:1048E000072C13F80C3040EA0320D2B2895C08444C
:1048F00000900099019880EA316001900199009838
:1049000080EA314000900099019880EA31200190BE
:104910000199009880EA31200090009A0299086875
:1049200050400860019A029948685040486005B0BC
:1049300080BD000080B584B003900291019203987D
:104940000299019A0CF06EF804B080BD80B584B075
:1049500003900291019203980299019A0CF0FAF8DF
:1049600004B080BD83B00290019100208DF8030057
:10497000FFE79DF80300012819D8FFE701980268B6
:1049800002990868104408600298026801990B684F
:1049900000209A4238BF01200860FFE79DF803001D
:1049A00001308DF80300029804300290E1E703B073
:1049B0007047000080B584B0039002910192039883
:1049C000029A019B02210CF005FD04B080BD00009D
:1049D00080B5A6B0DDF8B8C0DDF8B4C0DDF8B0C071
:1049E000DDF8ACC0DDF8A8C0DDF8A4C0DDF8A0C0DB
:1049F00024902391229221932E98022809D0FFE738
:104A00002E98102805D8FFE79DF8B800C00720B100
:104A1000FFE76FF00C0025906EE22898072804D37A
:104A2000FFE728980E2804D3FFE76FF00C002590CD
:104A300062E22A98B0F57F4F04D9FFE76FF00C00CF
:104A4000259059E22898C0F10F008DF87E000020D3
:104A50000C908DF864002A99002918BF01219DF857
:104A6000640040EA81108DF864002E996FF0070011
:104A700000EB810000F0F8019DF8640008438DF818
:104A800064009DF87E00411E9DF8640008438DF887
:104A9000640019A801302199289A3CF0C7FC0C98B1
:104AA0008DF87F0022981E90FFE79DF87F009DF80B
:104AB0007E10884210DAFFE71E989DF87F2019A922
:104AC000891AC873FFE79DF87F0001308DF87F00D9
:104AD0001E98000A1E90E8E71E9820B1FFE76FF0CD
:104AE0000C00259008E215A800210B9110223CF043
:104AF000F3FC0B988DF87F00FFE79DF87F000F28EF
:104B00000FDCFFE79DF87F2019A8835C15A9885C5E
:104B100058408854FFE79DF87F0001308DF87F00F2
:104B2000EBE724986A461DA91160102215AB1946BF
:104B30000DF05EFA209018B1FFE720982590DBE198
:104B40002A98002800F0A080FFE72A981E90299854
:104B5000109019A8002110223CF0BEFC2A98000AEF
:104B60008DF864002A988DF865001E980D2803D8EA
:104B7000FFE71E980A9002E00E200A90FFE70A98CD
:104B80000E9019A8023010990E9A3CF04FFC0E9925
:104B90001E98401A1E900E991098084410900020FC
:104BA0008DF87F00FFE79DF87F000F280FDCFFE7FF
:104BB0009DF87F2019A8835C15A9885C584088540B
:104BC000FFE79DF87F0001308DF87F00EBE7249828
:104BD0006A461DA91160102215AB19460DF008FA9E
:104BE000209018B1FFE72098259085E1FFE71E98F7
:104BF000002848D0FFE71E98112803D3FFE71020B4
:104C0000099002E01E980990FFE709980E9019A8F4
:104C100007900021089110223CF05EFC0798109943
:104C20000E9A3CF003FC08988DF87F00FFE79DF892
:104C30007F000F280FDCFFE79DF87F2019A8835C19
:104C400015A9885C58408854FFE79DF87F00013023
:104C50008DF87F00EBE724986A461DA911601022A9
:104C600015AB19460DF0C4F9209018B1FFE7209854
:104C7000259041E10E991E98401A1E900E991098A9
:104C800008441090B3E7FFE79DF87E0001388DF8E7
:104C9000440011A8013006902199289A3CF0C6FBE7
:104CA0000698289908449DF87E2000213CF014FCC9
:104CB00001208DF8530022981E902B9810902C986C
:104CC0000F90FFE71E98002800F0CF80FFE71E98A6
:104CD000112803D3FFE71020059002E01E980590ED
:104CE000FFE705980D902398A0BBFFE719A8039054
:104CF0000021049110223CF0EFFB039810990D9ACB
:104D00003CF094FB04988DF87F00FFE79DF87F004E
:104D10000F280FDCFFE79DF87F2019A8835C15A9F9
:104D2000885C58408854FFE79DF87F0001308DF87B
:104D30007F00EBE724986A461DA91160102215AB8D
:104D400019460DF055F9209018B1FFE720982590ED
:104D5000D2E0FFE724986A461DA9116011A910222C
:104D600019AB0DF045F9209018B1FFE72098259078
:104D7000C2E000208DF87F00FFE79DF87F000D99CD
:104D8000884210D2FFE710989DF87F20805C19A917
:104D9000895C48400F998854FFE79DF87F000130F7
:104DA0008DF87F00E9E72398012834D1FFE719A89F
:104DB00001900021029110223CF08EFB01980F9986
:104DC0000D9A3CF033FB02988DF87F00FFE79DF8C9
:104DD0007F000F280FDCFFE79DF87F2019A8835C78
:104DE00015A9885C58408854FFE79DF87F00013082
:104DF0008DF87F00EBE724986A461DA91160102208
:104E000015AB19460DF0F4F8209018B1FFE7209883
:104E1000259071E0FFE70D990F9808440F900D99C8
:104E20001098084410900D991E98401A1E9000206A
:104E30008DF87F00FFE79DF87F009DF87E10884287
:104E400012DAFFE79DF87F1011A8411AC87B0130E4
:104E5000C873000608B1FFE706E0FFE79DF87F0092
:104E600001308DF87F00E6E72CE700208DF87F0009
:104E7000FFE79DF87F009DF87E1088420DDAFFE77E
:104E80009DF87F1011A8411A0020C873FFE79DF814
:104E90007F0001308DF87F00EBE724986A461DA95A
:104EA000116011A9102219AB0DF0A2F8209018B1D1
:104EB000FFE7209825901FE000208DF87F00FFE796
:104EC0009DF87F000F280FDCFFE79DF87F2015A9D4
:104ED000885C19AB9B5C58408854FFE79DF87F00C5
:104EE00001308DF87F00EBE72D982E9A15A93CF044
:104EF0009DFA00202590FFE7259826B080BD000090
:104F000080B584B00390029101920398029A019BAC
:104F100005210CF05FFA04B080BD000080B582B0BE
:104F2000012040210BF0D8FA0190019820B1FFE751
:104F300001980CF043FAFFE7019802B080BD000031
:104F400080B582B0019001980CF026FA019810F01B
:104F50009FFE02B080BD000080B594B01390129106
:104F600006A8059000210191029130223CF0B4FA8C
:104F700001980390FFE703982F282BDCFFE7102010
:104F80000490FFE70498012811DBFFE713990498C8
:104F9000014411F8010C013001F8010C000608B1C0
:104FA000FFE704E0FFE7049801380490EAE7139A6A
:104FB00002F12000059B012109F0E2FB029008B1FB
:104FC000FFE72CE0059810300590FFE703981030BC
:104FD0000390D0E700200490FFE704982F280CDC12
:104FE000FFE71298049A835C06A9885C58408854AD
:104FF000FFE7049801300490EFE71398203006A9EA
:105000004FF4807209F060FC029008B1FFE706E0FF
:10501000139806A9203110223CF008FAFFE706A8F1
:1050200030211BF079FE029814B080BD80B588B0A5
:1050300007900691059204930798C06D0730C00849
:10504000029004980299884203D9FFE702980090E1
:1050500002E004980090FFE700980190FFE70698AF
:105060000599019A18F09AF9039008B1FFE72DE02D
:10507000FFE701990798C06DB0EBC10F0FD2FFE7B2
:10508000FFE70698019A0799C96DC1EBC20118F0B4
:10509000ABFC039008B1FFE718E0FFE7FFE70698D5
:1050A00007994C3116F062F900280ED4FFE7FFE7AC
:1050B0000699079800F14C02084618F027FE039065
:1050C00008B1FFE702E0FFE7FFE7FFE7039808B05A
:1050D00080BD000010B586B0DDF824C0DDF820C02A
:1050E000059004910392029305980499039A029BF8
:1050F000DDF820C0099CEE46CEF80440CEF800C092
:105100000DF01CFC06B010BD80B584B00390029178
:105110000192009303980199009A0DF055FC04B098
:1051200080BD000080B582B0012019210BF0D4F9B8
:105130000090009818B9FFE70020019005E0009862
:105140000DF076FC00980190FFE7019802B080BD59
:1051500080B582B0019001980DF05CFC019810F0D0
:1051600097FD02B080BD000080B584B0039002912D
:105170000192039802990DF065FC04B080BD000017
:1051800080B584B0039002910192039802990DF0CA
:1051900071FC04B080BD000080B584B00390029122
:1051A0000192039802990DF07BFC04B080BD0000D1
:1051B00080B584B0039002910192039802990DF09A
:1051C00081FC04B080BD000010B586B0DDF824C0BD
:1051D000DDF820C00590049103920293059804998C
:1051E000039A029BDDF820C0099CEE46CEF80440ED
:1051F000CEF800C00DF076FC06B010BD80B584B0CE
:10520000039002910192009303980199009A0DF086
:10521000B3FC04B080BD000080B582B0012009213C
:105220000BF05AF90090009818B9FFE700200190A0
:1052300005E000980DF0D8FC00980190FFE7019878
:1052400002B080BD80B582B0019001980DF0BEFC27
:10525000019810F01DFD02B080BD000080B584B043
:10526000039002910192039802990DF0E1FC04B0C1
:1052700080BD000080B584B0039002910192039834
:1052800002990DF0E7FC04B080BD000080B58AB043
:10529000099008910020019005A817F09FFB02A833
:1052A00017F09CFBFFE705A8022117F003FE019011
:1052B00008B1FFE720E0FFE7FFE7089902A8022214
:1052C00018F0FAFC019008B1FFE715E0FFE7099834
:1052D00005A916F04BF8002807D4FFE7099802A9A2
:1052E00016F044F8012806DBFFE74CF68070CFF695
:1052F000FF700190FFE7FFE705A817F087F802A805
:1053000017F084F801980AB080BD000080B586B01F
:10531000049003910292029803990968401A0128A7
:1053200006DCFFE74CF68070CFF6FF7005902CE0AE
:1053300003980068008840BA00900399086802301A
:105340000860029803990968401A0099884206DAB1
:10535000FFE74CF68070CFF6FF70059015E00498DB
:1053600003990968009A18F019F8019028B1FFE72D
:105370000198A0F54450059007E0009A0399086849
:105380001044086000200590FFE7059806B080BD36
:1053900080B588B0069005910492069901F11C0031
:1053A000703115F0E3FF28B3FFE7FFE7069901F13D
:1053B00070001C3116F07AF8039008B1FFE7B8E0EE
:1053C000FFE7FFE706985830012117F073FD0390BF
:1053D00008B1FFE7ADE0FFE7FFE706986430012181
:1053E00017F068FD039008B1FFE7A2E0FFE7002097
:1053F0000790A1E006985830012115F091FFB8B34D
:10540000FFE7FFE7069800F158021046114617F033
:1054100073FE039008B1FFE78BE0FFE7FFE7069814
:1054200000F15801021D084617F0FAFD039008B17B
:10543000FFE77EE0FFE7FFE7069800F16402104611
:10544000114617F059FE039008B1FFE771E0FFE73E
:10545000FFE7069800F16401021D084617F0E0FD21
:10546000039008B1FFE764E0FFE70020079063E0E6
:1054700000200290FFE7FFE7069800F15801019134
:10548000043018F0A7FB01460198059A049B16F01A
:105490006FFF039008B1FFE74BE0FFE7FFE70699D6
:1054A00001F15800043115F061FF00280CD4FFE72A
:1054B000FFE706985830012118F096FA039008B1DA
:1054C000FFE736E0FFE7EAE70298411C02910B286C
:1054D00004DBFFE76FF00D0007902DE0FFE7069873
:1054E0005830012115F01CFF0128C4DBFFE7FFE75E
:1054F000069A02F1640002F15801043217F07CFAB6
:10550000039008B1FFE714E0FFE7FFE7069800F11A
:10551000640100F11C02031D4C30EC46CCF8000085
:10552000084616F0ADFA039008B1FFE701E0FFE787
:10553000FFE703980790FFE7079808B080BD0000D9
:1055400010B588B0DDF830C0DDF82CC0DDF828C01B
:105550000690059104920393069820B1FFE7069800
:10556000806D30B9FFE74BF28000CFF6FF700790F7
:1055700039E0069800F1D00100F1AC0200F17C03A3
:10558000DDF828C00B9CEE46CEF80440CEF800C0F3
:105590000DF084FF029018B1FFE70298079022E017
:1055A0000698D03018F016FB0399884206D9FFE719
:1055B0004BF28000CFF6FF70079014E00698826DE2
:1055C000D008012101EBD2015207002A18BF08467A
:1055D000059908600698D0300499059A126818F069
:1055E00003FC0790FFE7079808B010BD10B592B014
:1055F000DDF858C0DDF854C0DDF850C011901091AE
:105600000F920E9304A80FF055FFFFE711980E9A22
:105610000F9B1499DDF854E0169CEC46CCF808403A
:10562000CCF804E0CCF8001004A90FF09DFD0D901B
:1056300008B1FFE716E0FFE704A80FF037FD30B12F
:10564000FFE74BF28000CFF6FF700D900AE0FFE716
:10565000109804A915F02AFF0D9008B1FFE701E0AA
:10566000FFE7FFE704A80FF00FFF0D9812B010BD81
:1056700080B582B0019001980FF034FA01987C3027
:1056800016F0C4FE019888300FF0FEFE0198AC3091
:105690000FF0FAFE0198D03016F0B8FE02B080BDCF
:1056A000B0B588B0DDF834C0DDF830C007900691A1
:1056B00005920493FFE707980699049A0C9B0FF054
:1056C0002DF9039008B1FFE719E0FFE7FFE707981E
:1056D0000599069A00F12803DDF810C00C9C0D9D79
:1056E000EE46CEF80850CEF80440CEF800C00FF0D9
:1056F0003BFD039008B1FFE701E0FFE7FFE70398F8
:1057000008B0B0BD80B586B00490039102920298B3
:10571000012808D1FFE70498AC30039988310EF0D6
:10572000C1FF059020E0029830B1FFE74BF2800006
:10573000CFF6FF70059017E0049888300399883100
:105740000EF0B0FF019048B9FFE704987C30039950
:105750007C3115F0ABFE019018B1FFE70198059080
:1057600002E000200590FFE7059806B080BD00002C
:1057700080B582B0019001980FF0FCF901987C305F
:1057800017F02CF9019888300FF094FE0198AC3096
:105790000FF090FE0198D03017F020F902B080BDD4
:1057A00080B58AB0DDF83CC0DDF838C0DDF834C023
:1057B000DDF830C008900791069205930898806D37
:1057C00030B9FFE74BF28000CFF6FF70099043E05D
:1057D000089800F17C0100F188020D9BDDF838C0CB
:1057E000EE46CEF800C00DF09BFE049018B1FFE726
:1057F0000498099030E00898059A0C9B03A910F0D2
:1058000085F8049018B1FFE70498099024E0039903
:1058100005980844059003990C98401A0C90089834
:1058200000F18801069A059BDDF830E0EC46CCF8E3
:1058300004E0CCF8003002AB10F0A4F8049018B1EA
:10584000FFE70498099007E0039802990844079934
:10585000086000200990FFE709980AB080BD0000A9
:1058600010B588B0DDF834C0DDF830C0DDF82CC0EC
:10587000DDF828C006900591049203930698806D88
:1058800030B9FFE74BF28000CFF6FF70079023E0BE
:10589000069800F17C0100F188020B9BDDF830C016
:1058A000EE46CEF800C00DF03BFE029018B1FFE7C7
:1058B0000298079010E0069800F18801049A059B71
:1058C000DDF80CC00A9CEE46CEF80440CEF800C0CD
:1058D00010F058F80790FFE7079808B010BD0000D7
:1058E00080B584B0039002910192039800F1AC015D
:1058F000029A019BD2F800C0A3EB0C030FF0C0FF8B
:1059000004B080BD80B586B00490039102920398E4
:105910000090049800F1AC01029B6A460FF0B0FFC2
:10592000019018B1FFE7019805900FE000980399E6
:10593000401A0299884206D0FFE74BF28000CFF66A
:10594000FF70059002E000200590FFE7059806B083
:1059500080BD000080B584B0029001910298019949
:105960000FF03AF90090009830B1FFE74BF2801049
:10597000CFF6FF70039002E000200390FFE703984A
:1059800004B080BD80B582B00120AC210AF0A4FD36
:105990000190019820B1FFE701980DF01FFFFFE78C
:1059A000019802B080BD000081B0009000980438DA
:1059B000B0FA80F0400901B07047000080B582B0B5
:1059C000019001980DF0AAFE019810F061F902B063
:1059D00080BD0000B0B5CAB0DDF844C1DDF840C1FB
:1059E000DDF83CC1DDF838C14890479146924593B7
:1059F0002BA82A904898C06D0730C008089050988E
:105A000015F054F9079030B9FFE74BF28000CFF65C
:105A1000FF70499051E004A816F0E0FF2BA810F0A9
:105A200097FEFFE74598089A09A918F0DDF9449018
:105A300008B1FFE738E0FFE7FFE748984E9A4F9B31
:105A400004A9FFF7F3FA449008B1FFE72CE0FFE761
:105A5000FFE7089A09A8811804A818F0C5F944902E
:105A600008B1FFE720E0FFE72A980799089A53005A
:105A700009AA10F0E1FF48984799469A459BDDF83E
:105A800038C14F9C2A9DEE46CEF80C5046F2657503
:105A9000C0F60105CEF80850CEF80440CEF800C09C
:105AA0000DF03AFF4490FFE72BA810F03FFE04A84A
:105AB00016F0ACFC44984990FFE749984AB0B0BD55
:105AC00010B5A2B0DDF8A0C0DDF89CC0DDF898C02C
:105AD000DDF894C0DDF890C020901F911E921D93B8
:105AE0001AA819901BA818900CA805901F9804904C
:105AF0002098406D30B9FFE74BF28000CFF6FF7081
:105B00002190FCE01D98012115F00AFC002808D422
:105B1000FFE71D9820994C3115F028FC002806D489
:105B2000FFE74BF28030CFF6FF702190E7E00FA83F
:105B30000FF0C0FC0CA816F051FF09A816F04EFF9C
:105B400006A816F04BFF199900200860FFE7199886
:105B5000011D199100680B2806DBFFE74BF20030AE
:105B6000CFF6FF701C90BBE0189900200860FFE79B
:105B70001898011D189100680B2806DBFFE74BF20F
:105B80000030CFF6FF701C90AAE0FFE7209805993F
:105B9000269A279B0EF0C2FE1C9008B1FFE79FE0FB
:105BA000FFE7FFE72098059A00F128032699DDF822
:105BB0009CE0EC460024CCF80840CCF804E0CCF89B
:105BC00000100FA90FF0D0FA1C9008B1FFE787E092
:105BD000FFE7FFE70498209901F14C020FA917F0A5
:105BE0001FFA1C9008B1FFE77AE0FFE7FFE704988F
:105BF000002115F095FB0028BAD0FFE7FFE72098B9
:105C0000249A259B09A9FFF711FA1C9008B1FFE718
:105C100066E0FFE7FFE72098269A279B06A90EF08B
:105C20007DFE1C9008B1FFE75AE0FFE7FFE71E98F2
:105C300004991D9A17F060FA1C9008B1FFE74FE035
:105C4000FFE7FFE71E9A09A9084615F065FA1C90C0
:105C500008B1FFE744E0FFE7FFE709A906AA084605
:105C600017F04AFA1C9008B1FFE739E0FFE7FFE7B9
:105C7000059906AA084617F03FFA1C9008B1FFE7FD
:105C80002EE0FFE7FFE71E980599209A4C3216F0A8
:105C9000B3FE1C9008B1FFE722E0FFE7FFE71E9983
:105CA00009AA084617F028FA1C9008B1FFE717E088
:105CB000FFE7FFE71E99209800F14C02084617F015
:105CC000AFF91C9008B1FFE70AE0FFE7FFE71E9875
:105CD000002115F025FB00283FF439AFFFE7FFE76F
:105CE0000FA80FF0D1FB0CA816F090FB09A816F036
:105CF0008DFB06A816F08AFB1C982190FFE72198DF
:105D000022B010BD70B588B0DDF83CC0DDF838C0F9
:105D1000DDF834C0DDF830C0079006910592049399
:105D200007980699059A049BDDF830C00D9C0E9DDE
:105D30000F9EEE46CEF80C60CEF80850CEF8044028
:105D4000CEF800C00DF090FF08B070BD80B5ACB0CB
:105D50002A902991289227930DF10D008B30029003
:105D600000200190FFE7299A02A80DF10D0109F02A
:105D7000A3FC2690B0F1FF3F03DCFFE726982B90B1
:105D80004FE02699019808440190FFE7FFE7FFE7FD
:105D90002A9A02A80DF10D0109F08EFC2690B0F1AF
:105DA000FF3F03DCFFE726982B903AE02699019805
:105DB00008440190FFE7FFE7FFE7019A02A80DF111
:105DC0000D0109F0ADFB2690B0F1FF3F03DCFFE7CA
:105DD00026982B9025E02699019808440190FFE72A
:105DE000FFE7FFE702A80DF10D01302209F03EFEAA
:105DF0002690B0F1FF3F03DCFFE726982B9010E0E0
:105E00002699019808440190FFE7FFE72898029936
:105E1000019A3BF00BFB01982799086000202B901A
:105E2000FFE72B982CB080BD10B5A2B0DDF898C06C
:105E3000DDF894C0DDF890C020901F911E921D9354
:105E400013A80390069010A80490059007A80FF0DF
:105E500031FB19A816F0C2FD16A816F0BFFD039875
:105E600016F0BCFD049816F0B9FD2098406D30B9CD
:105E7000FFE74BF28000CFF6FF702190BCE0249842
:105E8000012115F04DFA002818D4FFE72498209935
:105E90004C3115F06BFAB0F1FF3F0FDCFFE72598AE
:105EA000012115F03DFA002808D4FFE72598209934
:105EB0004C3115F05BFA002806D4FFE74BF20020C6
:105EC000CFF6FF701C9085E0FFE720981F9A1E9B7D
:105ED00019A9FFF7ABF81C9008B1FFE77AE0FFE7DC
:105EE000FFE72599209800F14C0216A816F084FDD2
:105EF0001C9008B1FFE76DE0FFE7FFE7069819A9DE
:105F000016AA17F0F9F81C9008B1FFE762E0FFE766
:105F1000FFE70699209800F14C02084617F080F838
:105F20001C9008B1FFE755E0FFE7FFE705982499CB
:105F300016AA17F0E1F81C9008B1FFE74AE0FFE766
:105F4000FFE70599209800F14C02084617F068F821
:105F50001C9008B1FFE73DE0FFE7FFE72098069AB5
:105F600000F128030599DDF874E0EC460024CCF834
:105F70000840CCF804E0CCF8001007A90FF0ECF9C9
:105F80001C9008B1FFE725E0FFE707A80FF08EF8A7
:105F900030B1FFE74BF20020CFF6FF701C9019E004
:105FA000FFE7209800F14C0207A9084617F038F8DF
:105FB0001C9008B1FFE70DE0FFE7249907A815F052
:105FC000D5F930B1FFE74BF20020CFF6FF701C90FF
:105FD00000E0FFE707A80FF057FA19A816F016FA25
:105FE00016A816F013FA13A816F010FA10A816F057
:105FF0000DFA1C982190FFE7219822B010BD0000F7
:1060000080B588B0DDF82CC0DDF828C00690059179
:106010000492039306980499039A0A9BDDF82CC016
:10602000EE46CEF800C00DF0E3FB0290029810F5AA
:10603000984F06D1FFE74CF20070CFF6FF70079043
:1060400002E002980790FFE7079808B080BD0000C3
:1060500080B58AB0DDF830C00990089107920693A8
:1060600002A816F0BBFCFFE702A8012116F022FFF0
:10607000059008B1FFE723E0FFE7FFE709980899DB
:10608000079B069AEC46CCF8042002AACCF8002024
:106090000FF038F9059008B1FFE711E0FFE7FFE7DF
:1060A0000998089B0C9A69464A6002AA0A60194638
:1060B0000FF028F9059008B1FFE701E0FFE7FFE7DF
:1060C00002A816F0A3F905980AB080BD80B5ADF519
:1060D000067DDDF82CC2DDF828C2DDF824C2DDF82B
:1060E00020C284908391829281930DF15B00159080
:1060F00000F2A51014908A983BF09EFC1390FFE7E5
:106100001499839A829B8198EC46CCF8000015A8DC
:1061100000F086FA809008B1FFE784E0FFE7FFE730
:106120001499839A829B8898EC46CCF8000015A8B5
:1061300000F076FA809008B1FFE774E0FFE7FFE730
:106140001499839A829B8998EC46CCF8000015A894
:1061500000F066FA809008B1FFE764E0FFE714986A
:106160001599401A032806DCFFE74BF20010CFF622
:10617000FF7085905AE09DF84F0015994A1C1592C2
:106180000870BDF84E0015994A1C159208701398B6
:10619000000A15994A1C15920870139815994A1C03
:1061A0001592087014981599884207D3FFE7149840
:1061B0001599401A1399884206D2FFE74BF2001056
:1061C000CFF6FF70859031E015988A99139A3BF0CD
:1061D0002DF913991598084415908498159A0DF186
:1061E0005B01521A03AB14F0EDF8FFE78B980290B5
:1061F000849814F04DFB0246029803A917F0CEF8DC
:10620000809008B1FFE70EE0FFE7FFE78B998398E6
:1062100000F14C02084616F003FF809008B1FFE73A
:1062200001E0FFE7FFE780988590FFE785980DF58F
:10623000067D80BD70B58AB0DDF844C0DDF840C091
:10624000DDF83CC0DDF838C0089007910692059350
:10625000119810990968884206D2FFE74BF2800036
:10626000CFF6FF70099038E0FFE707980E99109A73
:10627000119BD2F800C0A3EB0C030FF001FB0490BC
:1062800008B1FFE726E0FFE70E980EF00FFF30B1F0
:10629000FFE74BF28030CFF6FF7004901AE0FFE783
:1062A00008980799069A059BDDF838C00F9C109D49
:1062B000119EEE46CEF80C60CEF80850CEF80440A1
:1062C000CEF800C000F000FA049008B1FFE701E04A
:1062D000FFE7FFE704980990FFE709980AB070BD4F
:1062E0002DE9F0438FB0DDF870C0DDF86CC0DDF84B
:1062F00068C0DDF864C0DDF860C0DDF85CC0DDF8C2
:1063000058C00D900C910B920A931A98199909682C
:10631000884206D2FFE74BF20010CFF6FF700E90D6
:1063200058E0FFE70C980A99169A179BDDF86CC0A5
:106330001C9CEE46CEF80440CEF800C00EF0B6FA33
:10634000099008B1FFE742E0FFE7FFE70C981799D3
:106350000B9A199B1B68DDF868C0ACEB030EEC468A
:10636000CCF804E0CCF8003008AB0FF00BFB099040
:1063700008B1FFE72BE0FFE7089A19990868104475
:106380000860FFE70D980C990B9A0A9BDDF858C03E
:10639000179C189D199E1A9FDDF86C80DDF870908F
:1063A000EE46CEF81890CEF81480CEF81070CEF8E5
:1063B0000C60CEF80850CEF80440CEF800C000F0D3
:1063C0003FFA099008B1FFE701E0FFE7FFE709980E
:1063D0000E90FFE70E980FB0BDE8F083B0B58CB01B
:1063E000DDF850C0DDF84CC0DDF848C0DDF844C031
:1063F000DDF840C00B900A9109920893139806901B
:106400001398149908440590FFE70B980A99099A84
:10641000089BDDF840C0129C059DEE46CEF80C505E
:1064200006ADCEF80850CEF80440CEF800C0FFF715
:1064300001FF079008B1FFE726E0FFE7FFE70B98B1
:106440000A99099A089BDDF844C0129C059DEE4606
:10645000CEF80C5006ADCEF80850CEF80440CEF879
:1064600000C0FFF7E7FE079008B1FFE70CE0FFE789
:1064700006980599884206D0FFE74BF28000CFF6D8
:10648000FF700790FFE7FFE707980CB0B0BD000072
:106490002DE9F0418EB0DDF874C0DDF870C0DDF894
:1064A0006CC0DDF868C0DDF864C0DDF860C0DDF800
:1064B0005CC0DDF858C0DDF854C0DDF850C00D9068
:1064C0000C910B920A931998089019981A990844FC
:1064D0000790FFE70D980C990B9A0A9BDDF850C0C6
:1064E000159C189D079E1C9FDDF87480EE46CEF823
:1064F0001880CEF81470CEF8106008AECEF80C609C
:10650000CEF80850CEF80440CEF800C0FFF7E8FE01
:10651000099008B1FFE72AE0FFE7FFE70D980C9923
:106520000B9A0A9BDDF858C0179C189D079E1C9F6C
:10653000DDF87480EE46CEF81880CEF81470CEF8F0
:10654000106008AECEF80C60CEF80850CEF80440CB
:10655000CEF800C0FFF7C4FE099008B1FFE706E0DF
:10656000FFE708981999401A1B990860FFE70998F6
:106570000EB0BDE8F081000080B588B0DDF830C015
:10658000DDF82CC0DDF828C0079006910592049331
:10659000684616F023FAFFE70B9A0C9B6846102119
:1065A00015F0E6FE039008B1FFE733E0FFE7FFE7F1
:1065B0000A9A6946084616F09FFD039008B1FFE766
:1065C00028E0FFE7FFE7049A6946084614F0A4FDB7
:1065D000039008B1FFE71DE0FFE7FFE70798059983
:1065E0006A4616F089FD039008B1FFE712E0FFE765
:1065F000069A0799086800FB02F00860FFE7079910
:106600000A9A084616F00CFD039008B1FFE701E076
:10661000FFE7FFE7684615F0F9FE039808B080BD74
:1066200080B58AB0DDF830C00890079106920593D6
:10663000079808990968884207D3FFE707980899DF
:106640000968401A042806DCFFE74BF20010CFF679
:10665000FF70099034E006980C99059A089B1B6816
:106660000433DDF81CC0ACEB030EEC46CCF804E0C0
:10667000CCF8003003AB0EF0D3FF0490049818B1AF
:10668000FFE7049809901BE09DF80F00089909683E
:106690000870BDF80E000899096848700398000A50
:1066A000089909688870039808990968C870039860
:1066B00008990A6810440430086000200990FFE738
:1066C00009980AB080BD0000B0B5A4B0DDF8ACC038
:1066D000DDF8A8C0DDF8A4C0DDF8A0C022902191AB
:1066E00020921F9315A80EF0E5FE0CA80EF0E2FE16
:1066F00009A816F073F906A816F070F92B982A99D4
:106700000968884206D2FFE74BF28000CFF6FF709F
:10671000239092E0FFE721982A9A2B991368CB1ACD
:1067200015A90FF0ADF81E9008B1FFE776E0FFE77E
:106730002B982A990968884206D3FFE72B982A9953
:106740000968401A30B9FFE74BF28000CFF6FF70BE
:106750001E9063E02A9A1068411C11600078059031
:106760002B982A990968884208D3FFE72B982A9921
:106770000968401A0599884206D2FFE74BF280006B
:10678000CFF6FF701E9049E0FFE72A980168059A4E
:1067900009A816F003FE1E9008B1FFE73EE0FFE7F0
:1067A000059A2A99086810440860FFE72298219901
:1067B000209A1F9BDDF8A0C0299CEE4606ADCEF8BE
:1067C0000C50CEF80840CEF804C00DF1540CCEF8B1
:1067D00000C0FFF77BFC1E9008B1FFE71EE0FFE75B
:1067E000FFE72198289B1F996A46516009A911600B
:1067F0000CA906AA0EF086FD1E9008B1FFE70DE079
:10680000FFE70CA815A90EF015FE30B1FFE74BF21B
:106810000020CFF6FF701E9000E0FFE715A80EF0F5
:1068200033FE0CA80EF030FE09A815F0EFFD06A807
:1068300015F0ECFD1E982390FFE7239824B0B0BD1F
:10684000B0B59AB0DDF890C0DDF88CC0DDF888C036
:10685000DDF884C0DDF880C0DDF87CC0DDF878C0EC
:1068600018901791169215932298219909688842D9
:1068700006D2FFE74BF20010CFF6FF701990B5E09B
:106880000BA80EF017FE08A816F0A8F805A816F039
:10689000A5F8FFE717981599239ADDF890C06B4685
:1068A000C3F804C01A6008AA0BAB0DF0FFFF1490E8
:1068B00008B1FFE78EE0FFE7FFE718981799169AEF
:1068C000159BDDF87CC0209CEE4605ADCEF80C5043
:1068D000CEF80840CEF804C00DF12C0CCEF800C064
:1068E000FFF7F4FB149008B1FFE773E0FFE7FFE761
:1068F0001E9A05A9084616F0FFFB149008B1FFE7A1
:1069000068E0FFE7FFE708A905AA104617F0FEF9BF
:10691000149008B1FFE75DE0FFE7FFE7179800F18B
:106920004C0205A9084616F07BFB149008B1FFE75E
:1069300050E0FFE7FFE71798169A21990968229B14
:10694000A3EB010C6B46C3F804C019600BA904ABA0
:106950000FF018F8149008B1FFE73BE0FFE7049A46
:10696000219908681044086005A817F033F90490CD
:1069700022982199096888420ED3FFE7229821992D
:106980000968401A04990131884205D3FFE7049849
:10699000B0F5807F06D3FFE74BF20010CFF6FF7013
:1069A000149017E00498219B19684A1C1A6008701B
:1069B000FFE721980168049A05A817F015FA1490CA
:1069C00008B1FFE706E0FFE7049A21990868104440
:1069D0000860FFE70BA80EF057FD08A815F016FD9C
:1069E00005A815F013FD14981990FFE719981AB02F
:1069F000B0BD000080B582B00120AC2109F06CFD73
:106A00000190019820B1FFE701980EF075FBFFE7B8
:106A1000019802B080BD000082B001900199012070
:106A2000022900900DD0FFE7019901200329009071
:106A300007D0FFE701980438B0FA80F040090090D1
:106A4000FFE7009800F0010002B0704780B582B007
:106A500001900091019800990DF074FD02B080BD85
:106A600082B001900091009902200860009949F6D7
:106A7000F250C0F6030048600198883000998860A1
:106A800002B0704780B582B0019001980EF01EFBF5
:106A900001980FF0FDF802B080BD000081B00090B9
:106AA0000098806D01B07047B0B5B6B0DDF8F4C0A5
:106AB000DDF8F0C0DDF8ECC0DDF8E8C035903491C9
:106AC0003392329306A805900CF088FE059835990C
:106AD0000CF032FE3190B0B9FFE73499339A329B13
:106AE0003A98DDF8ECE03C9C3D9DEC46CCF80C502F
:106AF000CCF80840CCF804E0CCF8000006A8FFF77A
:106B000001F93190FFE706A80CF008FE319836B085
:106B1000B0BD000080B5B4B0DDF8DCC0DDF8D8C091
:106B2000339032913192309304A803900CF056FECA
:106B3000039833990CF000FE2F9080B9FFE732994B
:106B4000319A309B3698DDF8DCE0EC46CCF804E076
:106B5000CCF8000004A8FFF753FA2F90FFE704A831
:106B60000CF0DCFD2F9834B080BD000082B00190A5
:106B7000019901200229009007D0FFE7019803380E
:106B8000B0FA80F040090090FFE7009800F00100A3
:106B900002B0704780B5A2B020901F911E921D9345
:106BA0001E981830002114F0BBFB30B9FFE71F9886
:106BB0001D990DF077FD2190BFE21D98006A68B124
:106BC000FFE71D981830002114F0AAFB30B9FFE749
:106BD0001F981E990DF066FD2190AEE21D98006A87
:106BE00068B1FFE71D981830012114F099FB30B10E
:106BF000FFE74BF28000CFF6FF7021909DE219A8CD
:106C000015F0ECFE16A815F0E9FE13A815F0E6FE47
:106C100010A815F0E3FE0DA815F0E0FE0AA815F087
:106C2000DDFE07A815F0DAFEFFE71E9800F1180256
:106C300019A8114616F060FA1C9008B1FFE764E24B
:106C4000FFE7FFE7FFE7209919A802F0D9FD1C90A4
:106C500008B1FFE759E2FFE7FFE7FFE71E9800F101
:106C6000180216A819A916F047FA1C9008B1FFE7F8
:106C70004BE2FFE7FFE7FFE7209916A802F0C0FD0F
:106C80001C9008B1FFE740E2FFE7FFE7FFE71D9A2E
:106C900019A9084616F030FA1C9008B1FFE734E253
:106CA000FFE7FFE7FFE7209919A802F0A9FD1C9074
:106CB00008B1FFE729E2FFE7FFE7FFE71D9800F1D2
:106CC0000C0216A9084616F017FA1C9008B1FFE747
:106CD0001BE2FFE7FFE7FFE7209916A802F090FD0F
:106CE0001C9008B1FFE710E2FFE7FFE7FFE71E9AFD
:106CF00019A9084617F00AF81C9008B1FFE704E24A
:106D0000FFE7FFE719990020B1F1FF3F069009DC8A
:106D1000FFE719A8002114F003FB002818BF012089
:106D20000690FFE70698C00768B1FFE7FFE72098E5
:106D3000021D19A9084614F0EFF91C9008B1FFE7ED
:106D4000E3E1FFE7DEE7FFE71E9800F10C0216A97A
:106D5000084616F0DBFF1C9008B1FFE7D5E1FFE71E
:106D6000FFE716990020B1F1FF3F059009DCFFE72E
:106D700016A8002114F0D4FA002818BF01200590AD
:106D8000FFE70598C00768B1FFE7FFE72098021DFD
:106D900016A9084614F0C0F91C9008B1FFE7B4E149
:106DA000FFE7DEE719A8002114F0BAFA90B9FFE76F
:106DB00016A8002114F0B4FA38B9FFE720981F99FB
:106DC0001E9A00F0BFFC1C909FE11F980EF0BEFCC5
:106DD0001C909AE1FFE71E9800F1180107A819AA74
:106DE00016F08AF91C9008B1FFE78EE1FFE7FFE794
:106DF000FFE7209907A802F003FD1C9008B1FFE708
:106E000083E1FFE7FFE7FFE713A819AA114616F091
:106E100073F91C9008B1FFE777E1FFE7FFE7FFE7B1
:106E2000209913A802F0ECFC1C9008B1FFE76CE17C
:106E3000FFE7FFE7FFE710A813A919AA16F05CF90E
:106E40001C9008B1FFE760E1FFE7FFE7FFE720994B
:106E500010A802F0D5FC1C9008B1FFE755E1FFE750
:106E6000FFE7FFE71E9A13A9084616F045F91C90A4
:106E700008B1FFE749E1FFE7FFE7FFE7209913A823
:106E800002F0BEFC1C9008B1FFE73EE1FFE7FFE720
:106E9000FFE719A813A9022216F016F91C9008B1F1
:106EA000FFE732E1FFE7FFE72098011D19A814F082
:106EB0005DFA00280DD4FFE7FFE72098021D19A90D
:106EC000084616F091FE1C9008B1FFE71DE1FFE7B0
:106ED000EAE7FFE70DA816AA114616F00DF91C9077
:106EE00008B1FFE711E1FFE7FFE7FFE720990DA8F1
:106EF00002F086FC1C9008B1FFE706E1FFE7FFE720
:106F0000FFE70DA919AA084616F000FF1C9008B16A
:106F1000FFE7FAE0FFE7FFE70D990020B1F1FF3F3F
:106F2000049009DCFFE70DA8002114F0F9F900280E
:106F300018BF01200490FFE70498C00768B1FFE77D
:106F4000FFE72098021D0DA9084614F0E5F81C90F3
:106F500008B1FFE7D9E0FFE7DEE7FFE70DA910AAD8
:106F6000084616F0D3FE1C9008B1FFE7CDE0FFE71E
:106F7000FFE70D990020B1F1FF3F039009DCFFE727
:106F80000DA8002114F0CCF9002818BF01200390AF
:106F9000FFE70398C00768B1FFE7FFE72098021DED
:106FA0000DA9084614F0B8F81C9008B1FFE7ACE052
:106FB000FFE7DEE7FFE713A90DAA084616F0A6FED5
:106FC0001C9008B1FFE7A0E0FFE7FFE7139900205E
:106FD000B1F1FF3F029009DCFFE713A8002114F094
:106FE0009FF9002818BF01200290FFE70298C00710
:106FF00068B1FFE7FFE72098021D13A9084614F0C7
:107000008BF81C9008B1FFE77FE0FFE7DEE7FFE7C2
:1070100013A916AA084616F06FF81C9008B1FFE7EE
:1070200073E0FFE7FFE7FFE7209913A802F0E8FB12
:107030001C9008B1FFE768E0FFE7FFE7FFE71E9855
:1070400000F10C0210A9084616F056F81C9008B181
:10705000FFE75AE0FFE7FFE7FFE7209910A802F0FB
:10706000CFFB1C9008B1FFE74FE0FFE7FFE7FFE72A
:107070000AA813A910AA16F049FE1C9008B1FFE750
:1070800043E0FFE7FFE70A990020B1F1FF3F0190DD
:1070900009DCFFE70AA8002114F042F9002818BF14
:1070A00001200190FFE70198C00768B1FFE7FFE703
:1070B0002098021D0AA9084614F02EF81C9008B169
:1070C000FFE722E0FFE7DEE7FFE71F980DA914F0D6
:1070D000EDF91C9008B1FFE717E0FFE7FFE71F9805
:1070E0000C300AA914F0E2F91C9008B1FFE70CE09B
:1070F000FFE7FFE71F98183007A914F0D7F91C9095
:1071000008B1FFE701E0FFE7FFE719A815F07EF9F6
:1071100016A815F07BF913A815F078F910A815F04A
:1071200075F90DA815F072F90AA815F06FF907A8FE
:1071300015F06CF91C982190FFE7219822B080BDD2
:1071400080B584B002900191019816F043FD029938
:10715000C96D0731B0EBD10F06D9FFE74BF2803094
:10716000CFF6FF70039002E000200390FFE7039842
:1071700004B080BD80B582B0019000910198009963
:1071800000F002F802B080BD80B5A0B01E901D9145
:1071900000210791FF208DF81B001D9814F0C0F806
:1071A00000281AD4FFE71D980C30002114F0B8F81D
:1071B000002812D4FFE71D981E99043114F0D6F868
:1071C000B0F1FF3F09DCFFE71D980C301E99043138
:1071D00014F0CCF8002806D4FFE74BF28030CFF64D
:1071E000FF701F9038E0FFE71E9908A826F0D0FB3B
:1071F000079008B1FFE729E0FFE702A801903DF002
:107200005DF91D98806802901D9816F0E3FC0390CC
:107210001D98406904901D980C3016F0DBFC014667
:107220000198059108A93DF061F88DF81B00FFE772
:107230009DF81B0000281CBF4BF28030CFF6FF707A
:10724000079008B1FFE701E0FFE7FFE708A826F095
:107250008BFB07981F90FFE71F9820B080BD0000B0
:1072600080B5A4B0DDF89CC0DDF898C023902291D1
:10727000219220931CA815F0B1FB19A815F0AEFBC4
:1072800016A815F0ABFB13A815F0A8FB10A815F075
:10729000A5FB0DA815F0A2FB0AA815F09FFB07A8F7
:1072A00015F09CFB04A815F099FBFFE7209901F16C
:1072B00018021CA813F030FF1F9008B1FFE723E26B
:1072C000FFE7FFE72398011D1CA814F04FF80028E2
:1072D0000DD4FFE7FFE72398021D1CA9084616F00E
:1072E00083FC1F9008B1FFE70EE2FFE7EAE7FFE744
:1072F00019A81CAA114615F0FFFE1F9008B1FFE760
:1073000002E2FFE7FFE7FFE7239919A802F078FA06
:107310001F9008B1FFE7F7E1FFE7FFE7FFE72099DC
:1073200001F1180216A816F0F1FC1F9008B1FFE752
:10733000EAE1FFE7FFE716990020B1F1FF3F039074
:1073400009DCFFE716A8002113F0EAFF002818BFA8
:1073500001200390FFE70398C00768B1FFE7FFE74C
:107360002398021D16A9084613F0D6FE1F9008B1F7
:10737000FFE7C9E1FFE7DEE7FFE713A816AA11461A
:1073800015F0BAFE1F9008B1FFE7BDE1FFE7FFE788
:10739000FFE7239913A802F033FA1F9008B1FFE723
:1073A000B2E1FFE7FFE7FFE710A819A913AA16F05B
:1073B000ADFC1F9008B1FFE7A6E1FFE7FFE71099DA
:1073C0000020B1F1FF3F029009DCFFE710A8002187
:1073D00013F0A6FF002818BF01200290FFE70298D3
:1073E000C00768B1FFE7FFE72398021D10A9084610
:1073F00013F092FE1F9008B1FFE785E1FFE7DEE79B
:10740000FFE7269901F118020DA813F085FE1F90E1
:1074100008B1FFE778E1FFE7FFE72398011D0DA81A
:1074200013F0A4FF00280DD4FFE7FFE72398021D07
:107430000DA9084616F0D8FB1F9008B1FFE763E1DD
:10744000FFE7EAE7FFE7269901F118020AA816F01C
:107450005DFC1F9008B1FFE756E1FFE7FFE70A99DF
